{\rtf1\ansi\ansicpg1252\uc1 \deff28\deflang1033\deflangfe1033\deftab360{\fonttbl{\f0\froman\fcharset0\fprq2{\*\panose 02020603050405020304}Times New Roman;}{\f2\fmodern\fcharset0\fprq1{\*\panose 02070309020205020404}Courier New;}{\f3\froman\fcharset2\fprq2{\*\panose 05050102010706020507}Symbol;}{\f4\froman\fcharset0\fprq2{\*\panose 00000000000000000000}Times;}{\f14\fnil\fcharset2\fprq2{\*\panose 05000000000000000000}Wingdings;}{\f28\fswiss\fcharset128\fprq2{\*\panose 020b0604020202020204}Arial Unicode MS;}{\f29\fswiss\fcharset128\fprq2{\*\panose 00000000000000000000}@Arial Unicode MS;}{\f128\froman\fcharset238\fprq2 Times New Roman CE;}{\f129\froman\fcharset204\fprq2 Times New Roman Cyr;}{\f131\froman\fcharset161\fprq2 Times New Roman Greek;}{\f132\froman\fcharset162\fprq2 Times New Roman Tur;}{\f133\froman\fcharset177\fprq2 Times New Roman (Hebrew);}{\f134\froman\fcharset178\fprq2 Times New Roman (Arabic);}{\f135\froman\fcharset186\fprq2 Times New Roman Baltic;}{\f144\fmodern\fcharset238\fprq1 Courier New CE;}{\f145\fmodern\fcharset204\fprq1 Courier New Cyr;}{\f147\fmodern\fcharset161\fprq1 Courier New Greek;}{\f148\fmodern\fcharset162\fprq1 Courier New Tur;}{\f149\fmodern\fcharset177\fprq1 Courier New (Hebrew);}{\f150\fmodern\fcharset178\fprq1 Courier New (Arabic);}{\f151\fmodern\fcharset186\fprq1 Courier New Baltic;}{\f354\fswiss\fcharset0\fprq2 Arial Unicode MS Western;}{\f352\fswiss\fcharset238\fprq2 Arial Unicode MS CE;}{\f353\fswiss\fcharset204\fprq2 Arial Unicode MS Cyr;}{\f355\fswiss\fcharset161\fprq2 Arial Unicode MS Greek;}{\f356\fswiss\fcharset162\fprq2 Arial Unicode MS Tur;}{\f357\fswiss\fcharset177\fprq2 Arial Unicode MS (Hebrew);}{\f358\fswiss\fcharset178\fprq2 Arial Unicode MS (Arabic);}{\f359\fswiss\fcharset186\fprq2 Arial Unicode MS Baltic;}}{\colortbl;\red0\green0\blue0;\red0\green0\blue255;\red0\green255\blue255;\red0\green255\blue0;\red255\green0\blue255;\red255\green0\blue0;\red255\green255\blue0;\red255\green255\blue255;\red0\green0\blue128;\red0\green128\blue128;\red0\green128\blue0;\red128\green0\blue128;\red128\green0\blue0;\red128\green128\blue0;\red128\green128\blue128;\red192\green192\blue192;\red221\green221\blue221;\red153\green153\blue153;\red222\green222\blue233;\red102\green51\blue204;\red150\green150\blue150;\red254\green248\blue217;}{\info{\title Factiva RTF Display Format}{\author Factiva, from Dow Jones.}{\operator Factiva, from Dow Jones.}{\creatim\yr2005\mo2\dy5\hr12\min00}{\revtim\yr2005\mo2\dy5\hr12\min00}{\version2}{\edmins4}{\nofpages1}{\nofwords16}{\nofchars93}{\*\company Factiva, from Dow Jones.}{\nofcharsws114}{\vern8279}} \paperh15840\paperw12240\widowctrl\ftnbj\aenddoc\noxlattoyen\expshrtn\noultrlspc\dntblnsbdb\nospaceforul\hyphcaps0\formshade\horzdoc\dgmargin\dghspace180\dgvspace180\dghorigin1800\dgvorigin1440\dghshow1\dgvshow1\jexpand\viewkind1\viewscale100\pgbrdrhead\pgbrdrfoot\splytwnine\ftnlytwnine\htmautsp\nolnhtadjtbl\useltbaln\alntblind\lytcalctblwd\lyttblrtgr\lnbrkrule \fet0\sectd \titlepg \linex0\endnhere\pgbrdropt32\sectlinegrid360\sectdefaultcl\margr1440\margl1440 {\headerf\pard\plain \s21\qc \li-1008\ri-1008\widctlpar\tqc\tx4320\tqr\tx8640\aspalpha\aspnum\faauto\adjustright\rin-1008\lin-1008\itap0 \fs20\lang1033\langfe1033\loch\af28\hich\af28\dbch\af28\cgrid\langnp1033\langfenp1033 {\f0\fs16\qr\ri0{\*\shppict{\pict\jpegblip\picw117\pich70\picscaley100\picscalex100\picwgoal1755\pichgoal1050
FF
D8FFE1001845786966000049492A00080000000000000000000000FFEC00114475636B79000100040000003C0000FFE1031F687474703A2F2F6E732E61646F62
652E636F6D2F7861702F312E302F003C3F787061636B657420626567696E3D22EFBBBF222069643D2257354D304D7043656869487A7265537A4E54637A6B6339
64223F3E203C783A786D706D65746120786D6C6E733A783D2261646F62653A6E733A6D6574612F2220783A786D70746B3D2241646F626520584D5020436F7265
20352E362D633036372037392E3135373734372C20323031352F30332F33302D32333A34303A34322020202020202020223E203C7264663A52444620786D6C6E
733A7264663D22687474703A2F2F7777772E77332E6F72672F313939392F30322F32322D7264662D73796E7461782D6E7323223E203C7264663A446573637269
7074696F6E207264663A61626F75743D222220786D6C6E733A786D704D4D3D22687474703A2F2F6E732E61646F62652E636F6D2F7861702F312E302F6D6D2F22
20786D6C6E733A73745265663D22687474703A2F2F6E732E61646F62652E636F6D2F7861702F312E302F73547970652F5265736F75726365526566232220786D
6C6E733A786D703D22687474703A2F2F6E732E61646F62652E636F6D2F7861702F312E302F2220786D704D4D3A446F63756D656E7449443D22786D702E646964
3A41323833444137413541454331314535423730414642454331423332443443442220786D704D4D3A496E7374616E636549443D22786D702E6969643A413238
33444137393541454331314535423730414642454331423332443443442220786D703A43726561746F72546F6F6C3D2241646F62652050686F746F73686F7020
43432032303135204D6163696E746F7368223E203C786D704D4D3A4465726976656446726F6D2073745265663A696E7374616E636549443D2243353942433442
41323033324339414238413541444443363033343137334630222073745265663A646F63756D656E7449443D2243353942433442413230333243394142384135
41444443363033343137334630222F3E203C2F7264663A4465736372697074696F6E3E203C2F7264663A5244463E203C2F783A786D706D6574613E203C3F7870
61636B657420656E643D2272223F3EFFEE000E41646F62650064C000000001FFDB0084000604040405040605050609060506090B080606080B0C0A0A0B0A0A0C
100C0C0C0C0C0C100C0E0F100F0E0C1313141413131C1B1B1B1C1F1F1F1F1F1F1F1F1F1F010707070D0C0D181010181A1511151A1F1F1F1F1F1F1F1F1F1F1F1F
1F1F1F1F1F1F1F1F1F1F1F1F1F1F1F1F1F1F1F1F1F1F1F1F1F1F1F1F1F1F1F1F1F1F1F1F1FFFC00011080046007503011100021101031101FFC4007C00010003
01010100000000000000000000000306070405080101010101000000000000000000000000000102031000010303030203070403010000000000020001030405
061112072113314122513223141516086142331752433618110101010101000203010101000000000000010211213112415103226113FFDA000C030100021103
11003F00FAA501010101010101010101010101010101010101010101010101010101010101010101010101010101010101010101010101010101010101010101
01061F985B723C9F9CA6C669328BAD86DF15942B986DF532C62F20CCC0FF000C4C47AB1F57FD1749E471D4B75CEBB78BAEF9759793EFBC757CBCCB7FA4A3A20B
8505C2AB579C59DE26702277227D5A7F327F77A69AA9AE73A62D9AE556305B4E7DCA768BBE5D2E6B73B219554D05B2DB412C915344D10898EF0030DCDEB61F6F
4D5DDF556F278CE65D7BD1F36CCB26FC6BACBF0DCAA69AFD67A91092BE9253A79658E290189CCA270FF54DEAF6EDD539268FB5B8EA3CBF9AEE1167D814D49592
C7678E8E8EAEFD1C6643097D4C4589A7067DA5DA8DD8877783BF45667CA6BFA7B176E31BCDE6FBCABC8359357D4CB67B64F15B68684A590A980E377090A389DF
6096B4FABBB37EEFD56753C8DE2DBAAD6161D593E417ABCC5F9218CDA22AFA88ED551679659EDE329B539C8DF37A19C4CFB08BD03D5DBC996E4FF2E56DFBC576
829B32E4CE42CC69DF2BB8E3D69C66ABE9F47496B90A1DE4C7206F37021DDD61727D757EBA368CCAF92333BAB7DF8498565D969F1EF26D96EB7396B6E787C771
A5A3BCB11054176E19C44F7B3EFDC2706E12D7775F1E8964EC33ABCB3F4AD71BF2C647271E64B8FE415D54D7BFA3575D31CBACD29BD44D13432396C99DF7B944
60E40FAEBD1DBA6D5759F59C6EF2CAECCBB2ACA20FC68C6EF105E2BA2BB4F5318CF710A9986A4C5CAA3563998B7937A5BC5FC924FF004BAD5FA45838ABEDAAAC
C602B57275E3279E9A29653B4561D53C060E1DB723697417D8523137EAA6BE3E1AC73BF3D52EFD94DCABF9072AB76599D5D70CA8A4A93871FA6A6EFC74650B11
768E4ECBB7420602DCFA6BAF8F92B279E462EBDBDBC6C5BF28FEA1DDF75DBFEADF2FFF005BAB7CAF67B9FCDBBDDDDD9F4EEFF2EAB1F975F7EBF2AE66566E51B6
72F4997E298EC77AA596D216F779AAA9E0162797B85D0E58CF56DADE5A755659CE56753535D91DDC6584E71F7D5E7903348E9E86E972A61A1A6B5D29B4831422
F1BBB910918EBF0474D09FCFC13567391719BDED5631CC6F9C38EA8EEB8D63362A3BE59EA2A25A8B6DCCEA6288A2EE8B036F8E492322D0405DC74F1D7ABB2B6C
ACC9ACF916EC1F8A6AEC5C395F8757184D71BA53D5BD4F6DF58C26A98DC00449F4D76330F5F6A975EF5BCE399E33DC33813286E33CBE8F20A3ED649730863B54
273432930D00B490334A06602D21FC3EA5D19BD8B577EB9E7F95FADEFCB45E00C1EFF89E1F57164503C17BB857CB5754252473168E2003B8E32317D76B978F9A
C6EF6BA7F2CD93D5AB3F87349318A9FB3278A0BFC6E274CD30810482CFEB8FE23388B90F83BF9FB149CFCB5AEF3C6738962DCA17CE57B7E6D995A69EC91DA2DC
5451C314F14EF399B48CE4CD11CBB7ACE4EFABB79375F15AB67391CF39D5D76A27C6796706CEB26BAE2166A5C8AD193CFF003A612D4474F24136E33767EE1C7D
374A5E1AEADA783A7659E9CD66DE7E5D387F19E6141C7F9EC978088F2BCCE2AE98A82031ED84D3C32B471EF72EDB3949317EEDACDA754BA9D8671797F75E25EB
83EFD75E16B0DBDA95A9736B0C530C50B4B133C91CF29F7698A51378F4303D5BD5A6BD3A6AEACD7A97F9DB9FFA9728E31CE6B7F1FAC189D2DB7B990515404955
45DFA71D82253BBBF70A4689FF00907C0926A77A6B17E922CD811F22864D4ED75E3BB5E3D6E90241A9BA51CD4852836C72116184C8DD88C459FA2979FB6B3DEF
C3C3CC31FE622BBDE2927C76D99E586B1CCAD12D6BD2412D101B938C7EA780DDC7769AB78E8CEC4CACB13535FAEA4FEA1CB7FF003CFD91BE2FAFEEF98EC773E1
6BF35F31D9EE7BBAEDF3F77779E9D54FB4FB74FF00CEFD38DB161D84040404040404040404040404040404040404040404040404040404040404040404040404
040404040404041FFFD9}}
\par }{\fs20\lang1024\langfe1024\noproof {\shp{\*\shpinst\shpleft1440\shptop2070\shpright10800\shpbottom2070\shpfhdr1\shpbxpage\shpbxignore\shpbypage\shpbyignore\shpwr3\shpwrk0\shpfblwtxt0\shpz2\shplockanchor\shplid2049{\sp{\sn shapeType}{\sv 20}}{\sp{\sn fFlipH}{\sv 0}}{\sp{\sn fFlipV}{\sv 0}}{\sp{\sn shapePath}{\sv 4}}{\sp{\sn fFillOK}{\sv 0}}{\sp{\sn fFilled}{\sv 0}}{\sp{\sn fArrowheadsOK}{\sv 1}}{\sp{\sn posrelh}{\sv 1}}{\sp{\sn posrelv}{\sv 1}}{\sp{\sn fLayoutInCell}{\sv 1}}{\sp{\sn fLayoutInCell}{\sv 1}}}{\shprslt{\*\do\dobxpage\dobypage\dodhgt8194\dpline\dpptx0\dppty0\dpptx9920\dppty0\dpx1190\dpy2070\dpxsize9920\dpysize0\dplinew15\dplinecor0\dplinecog0\dplinecob0}}}}{\f0\fs16  \par }}{\footerf \pard\plain \s22\ql \b\f354\fs18  Page {\field{\*\fldinst PAGE}{\fldrslt 1}}{     }\'a9 2019 \uc2 Factiva, Inc.  All rights reserved.\par }{\footer \pard\plain \s22\ql \b\f354\fs18  Page {\field{\*\fldinst PAGE}{\fldrslt 1}} of {\field{\*\fldinst NUMPAGES}{\fldrslt 1}}{     }\'a9 2019 \uc2 Factiva, Inc.  All rights reserved.\par }\pard\plain \ql \li0\ri0\nowidctlpar\faauto\rin0\lin0\itap0 {\fs20 {\par\fs20{\*\shppict{\pict\pngblip\picw205\pich40\picscaley100\picscalex100\picwgoal3075\pichgoal600
47
4946383961CD002800F7FF00C5E8F54AB8E09CD8EEF9FAFAF3FAFDFDFEFF81CEEAD8F0F8F5F6F664767A1CA7D96EC6E671C8E7E4F5FA8E9B9E2AACDB89D1EB4C
616652666B495E64C5CCCE76CAE8BAE4F3A9DDF09AA6A9B6E2F35EC0E43EB4DE203A41E9F6FB0E2A313C5359A4DCF07DCCE9E1E4E5ADDFF1F5FBFDB0E0F2EAED
EDC1C8CAC0E6F416A4D720A8D9AEE0F1CAEAF61B363CBDE5F45A6D7219A5D855696E7E8D906D7E829ED9EFAAB4B6364D53D6EFF8758589D4D9DBE3F4FAD4EEF8
2CADDBA0DAEF40565CB1BABC8CD2EC46B7E040B5DFEEF9FC92D4EC5BBFE3BEE6F459BEE3E1F3FA3DB3DEE5E8E97FCDE96BC5E68ED3ECA2DBEF82919479888C34
B0DD53BCE2D1EDF744B6DF60C1E4B6BFC11BA6D89DA8AB9AD8EE96D6ED98D7EE87D0EBB5E2F236B1DD2FAEDCCAD0D2FDFDFDECF8FC4F646923A9DA3AB2DED1D6
D789979A2E474D48B8E02A43496CC6E6465B604FBAE1697A7F324A5039505557BDE2153037122D3413A3D732AFDC51BBE290D4ECC7E9F524A9DADAF1F968C4E5
64C2E5F6FBFDF9FDFE8F9CA0C9EAF6D9DEDF1FA8D938B1DD27ABDAB3E1F274C9E77BCBE9F7FCFE607377D8DDDE43B6DFFAFDFE70C7E726ABDAF1FAFDD3EEF7AD
B6B914A3D7B9C1C333B0DC738387B2E1F228ABDBBBE5F4F9FCFE586B7057BEE3EDEFF0C2E7F595D6ED26AADADDE1E2DBF1F9C6E9F5FBFEFE87959855BDE225AA
DAF2F3F4F0F9FCA7DDF0BBC3C5274046AEB7BAABDEF1F8FCFEDADEDFC7E9F694D5EDC8EAF691D4EC7ACBE86F808466C3E5BFC6C8ECEEEF5F7276D2D7D8E7F6FB
31AFDC28414784CFEACCD2D3E0E3E45CC0E3CCEBF6DCF1F971828665C3E54BB9E14DBAE1F6F7F8DBDFE0EFF1F1DEF2F91D373EBDC5C696A2A531494FC4CBCCEB
F7FCE4E7E8A2ADB0E5F5FBECF7FC77CAE8384F5539B2DD8B989C19A6D8DCE0E1DEE2E3CEECF7EAF7FBD7DCDD5C6F74708185C8CFD0FBFCFCA6B0B3A0ABADE7EA
EBD2EDF7F1F2F3F3F4F498A4A78F9C9FC3E8F5D3D8D9D6DBDCDFF2FA183339E8EBEC7F8E92B7E3F3CFD4D667C4E5CDD3D4B3BCBE42B5DFE6E9EA2B444A334B51
DDF2F9ACB5B850BBE1FFFFFF21FF0B584D502044617461584D503C3F787061636B657420626567696E3D22EFBBBF222069643D2257354D304D7043656869487A
7265537A4E54637A6B633964223F3E203C783A786D706D65746120786D6C6E733A783D2261646F62653A6E733A6D6574612F2220783A786D70746B3D2241646F
626520584D5020436F726520352E362D633131312037392E3135383332352C20323031352F30392F31302D30313A31303A32302020202020202020223E203C72
64663A52444620786D6C6E733A7264663D22687474703A2F2F7777772E77332E6F72672F313939392F30322F32322D7264662D73796E7461782D6E7323223E20
3C7264663A4465736372697074696F6E207264663A61626F75743D222220786D6C6E733A786D703D22687474703A2F2F6E732E61646F62652E636F6D2F786170
2F312E302F2220786D6C6E733A786D704D4D3D22687474703A2F2F6E732E61646F62652E636F6D2F7861702F312E302F6D6D2F2220786D6C6E733A7374526566
3D22687474703A2F2F6E732E61646F62652E636F6D2F7861702F312E302F73547970652F5265736F75726365526566232220786D703A43726561746F72546F6F
6C3D2241646F62652050686F746F73686F70204343203230313520284D6163696E746F7368292220786D704D4D3A496E7374616E636549443D22786D702E6969
643A34434136463534303530463531314536393838464545313643313433353536382220786D704D4D3A446F63756D656E7449443D22786D702E6469643A3443
413646353431353046353131453639383846454531364331343335353638223E203C786D704D4D3A4465726976656446726F6D2073745265663A696E7374616E
636549443D22786D702E6969643A3443413646353345353046353131453639383846454531364331343335353638222073745265663A646F63756D656E744944
3D22786D702E6469643A3443413646353346353046353131453639383846454531364331343335353638222F3E203C2F7264663A4465736372697074696F6E3E
203C2F7264663A5244463E203C2F783A786D706D6574613E203C3F787061636B657420656E643D2272223F3E01FFFEFDFCFBFAF9F8F7F6F5F4F3F2F1F0EFEEED
ECEBEAE9E8E7E6E5E4E3E2E1E0DFDEDDDCDBDAD9D8D7D6D5D4D3D2D1D0CFCECDCCCBCAC9C8C7C6C5C4C3C2C1C0BFBEBDBCBBBAB9B8B7B6B5B4B3B2B1B0AFAEAD
ACABAAA9A8A7A6A5A4A3A2A1A09F9E9D9C9B9A999897969594939291908F8E8D8C8B8A898887868584838281807F7E7D7C7B7A797877767574737271706F6E6D
6C6B6A696867666564636261605F5E5D5C5B5A595857565554535251504F4E4D4C4B4A494847464544434241403F3E3D3C3B3A393837363534333231302F2E2D
2C2B2A292827262524232221201F1E1D1C1B1A191817161514131211100F0E0D0C0B0A090807060504030201000021F904010000FF002C00000000CD00280040
08FF008DD51948B0A0C1825EDA84B044E29FC38710234A7CB84EC2980913665889C84A020735E1B63954142197C3011258399C14E1CFC4873F226079F86D462F
0E9AEE3D843626D1C37663C239FC21414284081322E072682F018755C4A4BD9C4AB5AAD5AB2FEBD0D9BA550A56872402701DDBE1EBBF171E564D60E3C183BE01
0E7DB44D10A3EDB48738DA3EF987A0AD074E13E5CA49D476E63F0C6D3511F630C1610D0F361C366BFBCCE1190F1CD6B299B0545DDB310998794860B6B4E9D35A
C7DA39CDBAB5EBD7B063CB369D9AEB6AD386C6D221E4E7EB9EB10F221EDA2A00229EAD41AE36DABAE26116AE981E1AD80AE421091874522C8BE86B6BF0871AB6
76FF92CE15D2C3055B5341BCB31502C43E79E8A898C8646B318800B61EB16A64EB17898B6CB5406D5BB5E1C7810766520044A3B8D2411755E8C61508A5FD4607
850E51B11526251067DC566960758080DDA540C03F805027051D8E607543105B09D2DB43A26C158235747CB2607F74CCB2011D3C48C41E1DEE3D049F7C0FE527
DF10132959446B2E38A21F8112566925570C9C4698030F55E2C119FF9CE0C1070FFDE2811A0EB1E2810CC8F8254F5F6854F587079538C48107AF3C64830760FC
138907177940419B91FD33273336D8B00F98FFA8E2970FD99C32DBA46651795B697648380AA59C76EAE9A795EA76A959B98DC5DB57060C32882F1335A1EA0810
75FF739041253C6481AA4556C5C42051980751274528C0551D1030129113AA3A7195068350A2C343C80E52DC43880861102F946C60CB051309336B4116480402
15926C25C92218FE63E9692AE8B68159168E97C256C338341C1DD33A741C1D64F0E1EFBFFE0210112574C080CA3F5CD0F14513E9FD03CB561A4484097055DCC1
C24B8808AB4D43CB09B1C55646FCD3211D4C443464AEFF1C09030315B45C011F577085047E5B5D0230C0173F04C158D830D1C30D10515965B80F2561A50AE39D
6661BA0ED13056BEFFECEB052054570D082CD148F4F156642CE8500763250D517D3686E20722806848878C112DC1D52010ED30D60E42B6F75E7C829CF8500182
6CFFE549444A2EC282D554CB2206445F6C95020DD4303244219F4C79E5E4122AD0436B84E160063D737A60C63FF1B4F5473EAF44E081260E5DE3C10FFF10D356
3AFFEC23285573D6F98FE91280A2C4136D01F6675B8A340A99437326A0882281E40097261ED4328E34A64301EAF4EAEA96871DD867AF7DF641907125936611E6
9243B57840CA3FB77800C7438A78D0CB4972B4D08B0703942FFBF85321468C43A229F1D033B3FB1399E4E101D1ACCF50A301850201F30F49FD831BE4988007D8
403D50ADAB34F3905030CCA284407830100E8C483226710B7444240C81C893431010081350E5179370874494D18C49000322A70884082012881BFE83131FFCE0
38FF1E8280134C428515FCD40593C8C4263A31894B348B2702608C2A1AA308C67AA216B7E8C4287EA5545C3915562C44076348E45E50DBD79594E5908CE52822
1DD0C1232032223A0801221918CB2084D0AEAD440122D4D88A1722420D1DE8CD210FA3C37E1E72B2BB510E6E349B1CACC8A3B80D6C605E5B6944F554739A0AE8
E61333BACA6F52D088BEC100110F41E387EC78951AD12162FF28401FE990848778612B3373882B844507595C65045B598343C480493A94A28DC282C121FFD148
23E1AD2111B9C0569E94A4AE58851D5B310555BC681561542903F0DA0A1BA5448742FC0347F85AE595B61091E9D0611EFF98D721FE2196E0848039132981318A
C9FF156A42043D7410C63FB6128B7FFC6811FFB0C556506032BB39F36865688544947425A639E40E65A85213363939733EE40194A38669960691E53C6D9577C4
CA31C6521D87AC612CD688482BB8321118D14114031B4BBA4A319610D48D488ECCDB43C0B615174C742BA37A8985421491026493725B99A44362C61515144360
AEC9141DB4201135B6D4213CBA524123120DAED02022B4E0DA4B1AF0A32AF9542275A403D11E12213AFC51226EA34305204202AECC3122C6D8CA0636E590894D
EE7210B1C02CC72209895215AA5772440876E11AB6F8A52DD27388032EEB81397CE31FB8680B378457287078000754918107C0E1105D70D603CE70483930EB10
2BFF78400E0E512D676F4881D78A848BB0111A64AD6408D610C63067F10097C414A7D69EC92133F00006FEA186B66CA477B4A3939D3C008A87ACC203E2F0935F
2263A642CDE97C11A98B1B20E242E0BE46B8C3B512B74AB3A58744371BFF808607AEF1107178A0B9EDD3046270B00A1B4C633472D2EE3FEE948387BCC103BF10
AF1BCC91967B0C0F81977DC143542197B6C8A1C1EE750D953681150280800755D264F83C60182554572539F0003CA4F28FCD1EF01F6368CB3EFED10FBF406322
3878417849E181F5FE030DB01D891C3C900CF19269C16D79F29CF01B9108C0632FE8C34C88452C2AD3104242ECFC0A5A321C8F872843027E81077A1DD2630FE8
C2FF21CCBB714494D0610F98E421F258726210E018F53D241717DE2C67776828D1B42506C8D8726BB87915148F85128A8EB4A451D365D31CC00298C6B411BC36
E94E7B7A228CFEB4A847CD9A5093FAD4A8DE66A54B53D7B16442D1842D0DA72122861D4C811F2F99F557740DDC064C610ACF0ADAAA49A51B315E250E5C798744
C8360B88A080725C75488AE85006AB20822B657908C3AA14856C3BA410D6ACCAB5B7E28A8774870EF3B40EE5F0518D8884D54A6C048F9536C851A49E068C5B31
B655C84807A34244950FD91736F440F082EBE1007F754860E970808784020692B844B91D32B23D40A4AD49F0152AB6468778FF8317053B241E522089BB3A2416
5BFFA1C57A1CEA902329600A06970518A5FA0F25A521140627F8010E590DAED4A3010ED18149E9A0075353059D610CE5BEB3C3952CFCDB4301DF4A4AABE289AD
6CD421C1E0CA12E85AD4A16EE50A1261440F68305F87DC930E77784880FCF690859F63E5407DA85023F26C3A90B89A7448EA442CB195BB43040934A0810B8C3E
954DE8E63B63DCCA0D9C460715FF03E0FA42CE55883AC8A8D14112BCA4AC37F23D6BB53D0013599CCA0D24FF8F1564073B0AE84D1D110A77941D693E848CC256
0C10C9455205155C3986AF2442F889E4752C8E17E5562E87723ABCEB1F694D67D4273756AED30116FFD0901418D1375BFCE33974B83A447626A13A1061220BDF
0EFF8A1730503A6C3DAFCD6EBD2327E7F4485E09B10F31BC848260098750290E6699073FB7E2085E5385A4FF9041BBF10FDB96465B51078590800A680925904B
0F3132A9A0035BD105FFC07D43C0005BD1706B950121B07004151155470723C0025BD10DFF704F57F0085A156C8CC47229131F57D00A5D60098E167C9194045D
A08009C8802235117A900A0C60345CE12DBA01039740084848088EC0500FD1069F801D56524B15B215E9120AFE111ECA1779AC741599D03782D037C7F0102896
07ED120011110A1770015805118CE03D7400345EC722DE731FFF8008DA40070FD02EFED48271D7727873483C55464D626F55210A69582F74B7153C005F633157
FFFF208456C28453782110E1075008755A981C58317401F510D2C415F0E710B8B7155C1011A3101F74B07B0ED16A74C082B3301665C787AEF787107176410238
FA61152EC01538F52B35C3885CE188903816554059AC018010017298687993735611210B5C510511D1563090700F410097602AA630161E47715C115310015205
034DEA2777CBF40F7CB715D64851F2051190301629F0007DC31537C0050C6008F8988FFAC80070E81040D00887100BF3003EAF7107D8E36F111102D8034E0F71
03DBF390083936D8E36D0E3105D88332124103FEC00382A00251500C62131199700476500AE40856D8E38C113102D8138B99A0017650047D20113A2005764005
0E17B8030FB93D6BF810DE00018B400882600A49400B881810003B}}
\par\par \b \uc2 Press Release: \uc2 KaloBios \highlight22\uc2 Announces  \highlight \highlight22\uc2 New \highlight \highlight22\uc2  Product \highlight\uc2  Pricing Model\b0\par\par\uc2 1,078 \uc2 words\par \uc2 11 April 2016\par 08:00\par \uc2 Dow Jones Institutional News\par \uc2 DJDN\par \uc2 English\par \uc2 Copyright \u169\'00\'A9 2016, Dow Jones & Company, Inc.   \par \par \uc2 KaloBios\b \highlight22\uc2 Announces \b0 \highlight\b \highlight22\uc2 New\b0 \highlight\b \highlight22\uc2  Product\b0 \highlight\uc2  Pricing Model \par \par \uc2 \f2 \par    -- Model applies to all product candidates \par  \par    -- Focus on affordability, transparency and reasonable return \par  \par    -- Company will not engage in aggressive pricing or "price-gouging" \f28 \par \par \uc2 BRISBANE, Calif., April 11, 2016 (GLOBE NEWSWIRE) -- \uc2 KaloBios Pharmaceuticals, Inc\uc2 . (OTC:KBIOQ) today announced the adoption of a new pricing model that will guide the company's strategy and operations. This framework applies to all products in the company's current and future pipeline, including benznidazole in the potential treatment of Chagas disease.\par \par \uc2 "Our new pricing model is a commitment to define and develop transparent, responsible pricing for the products we hope to bring to patients in the future," said \uc2 Cameron Durrant, MD\uc2 , MBA, \uc2 KaloBios\uc2 ' Chairman and Chief Executive Officer. "Drug pricing is a big concern for all stakeholders in healthcare. We believe that our approach balances the needs of key stakeholders, including patients, clinicians, payers, NGOs, investors, policy makers and advocacy groups."\par \par \uc2 KaloBios\uc2 ' Responsible Pricing Model: \par \par \uc2 \f2 \par    -- Responsible Pricing = affordable for patients and payers, transparent for \par       stakeholders and delivers a reasonable return for the company taking the \par       risk of bringing products to patients. \par  \par    -- We plan to price our products at overall cost, plus a reasonable and \par       transparent profit margin, if and when we commercialize them. \par  \par    -- In the case of benznidazole, for instance, the price will be cost plus a \par       modest profit margin. We are not conducting original research on \par       benznidazole and therefore do not plan to incorporate an "R&D premium" \par       into the price. \par  \par    -- We will publicly share the key elements that make up the pricing of our \par       products. \par  \par    -- We will seek input from key stakeholders on what would constitute a \par       reasonable return. \par  \par    -- We will not take arbitrary price increases on our products and will limit \par       any increase to no more than the rate of inflation or Consumer Price \par       Index and to no more than once a year, if at all. \par  \par    -- We will not engage in aggressive or predatory pricing policies or \par       "price-gouging." \par  \par    -- We plan to ensure patients, irrespective of their ability to pay, will \par       have access to benznidazole, if and when \f28 \uc2 \f2 KaloBios\f28 \uc2 \f2  commercializes the \par       product for Chagas disease in the United States. \par  \par    -- In developing countries, we plan to make benznidazole available at, or \par       near cost and plan to work with partners on creating access programs to \par       ensure patients in need receive the medication. \f28 \par \par \uc2 \f2 \f28 \uc2 \f2 KaloBios\f28 \uc2 \f2  anticipates sharing additional information related to how it will implement this model over the coming months and years.\f28 \par \par \uc2 \f2 About Benznidazole\f28 \par \par \uc2 \f2 Benznidazole is an oral anti-parasitic medication used in the treatment of Chagas disease. An estimated 300,000 people in the United States are infected with Chagas disease, which, if left untreated, can lead to serious and potentially life-threatening cardiovascular, gastro-intestinal and neurological complications. Chagas disease can be transmitted via insect vectors, from mother-to-fetus and via blood transfusions or organ transplantation. Benznidazole is the standard of care for Chagas disease but is not currently approved by the \f28 \uc2 \f2 U.S. Food and Drug Administration (FDA) \f28 \uc2 \f2 and is available in the United States only from the \f28 \uc2 \f2 Centers for Disease Control and Prevention\f28 \uc2 \f2  (CDC) under investigational protocols.\f28 \par \par \uc2 \f2 About \f28 \uc2 \f2 KaloBios Pharmaceuticals, Inc\f28 \uc2 \f2 .\f28 \par \par \uc2 \f2 \f28 \uc2 \f2 KaloBios Pharmaceuticals, Inc\f28 \uc2 \f2 . (OTC:KBIOQ) is a developmental stage, biopharmaceutical company focused on advancing treatments for neglected diseases. On Dec. 29, 2015, \f28 \uc2 \f2 KaloBios\f28 \uc2 \f2  filed a voluntary petition for bankruptcy protection under Chapter 11 of Title 11 of the United States Bankruptcy Code, and currently manages and operates its business and assets as a "debtor-in-possession." \f28 \uc2 \f2 KaloBios\f28 \uc2 \f2  is working to emerge from bankruptcy.\f28 \par \par \uc2 \f2 Forward-Looking Statements\f28 \par \par \uc2 \f2 This release contains forward-looking statements made pursuant to the safe harbor provisions of the Private Securities Litigation Reform Act of 1995. Forward-looking statements reflect management's current knowledge, assumptions, judgment and expectations regarding future performance or events. Although management believes that the expectations reflected in such statements are reasonable, they give no assurance that such expectations will prove to be correct and you should be aware that actual results could differ materially from those contained in the forward-looking statements. Forward-looking statements are subject to a number of risks and uncertainties including, but not limited to, Bankruptcy Court approval for the Company to continue its operations; the Company's ability to manage expenses and fund its working capital needs during the Chapter 11 process; the Company's ability to manage its relationships with its creditors, vendors, and customers during the Chapter 11 process; the Company's ability to emerge from bankruptcy successfully; the Company's access to limited cash reserves and its ability to obtain additional capital on acceptable terms, or at all, including the additional capital which will be necessary to complete the clinical trials that the Company has initiated or plans to initiate; the potential timing and outcomes of clinical studies of benznidazole, lenzilumab, KB004 or any other products undertaken now or in the future; the Company's ability to consummate the acquisition of rights to benznidazole; the commercial viability of the Company's proposed drug pricing program; the ability of the Company to timely source adequate supply of its development products from third party manufacturers on whom the Company depends; the potential, if any, for future development of any of its present or future products; the Company's ability to successfully progress, partner or complete further development of its programs; the uncertainties inherent in clinical testing; the timing, cost and uncertainty of obtaining regulatory approvals; the Company's ability to protect the Company's intellectual property; competition; changes in the regulatory landscape or the imposition of regulations that affect the Company's products; and other factors listed under "Risk Factors" in the Company's most recent quarterly report on Form 10-Q filed with the \f28 \uc2 \f2 Securities and Exchange Commission\f28 \uc2 \f2  on August 10, 2015, the Annual Report on Form 10-K filed on March 16, 2015, and the Company's other filings with the \f28 \uc2 \f2 Securities and Exchange Commission\f28 \uc2 \f2 .\f28 \par \par \uc2 \f2 All forward-looking statements are expressly qualified in their entirety by this cautionary notice. You are cautioned not to place undue reliance on any forward-looking statements, which speak only as of the date of this release. The company has no obligation, and expressly disclaims any obligation to update, revise or correct any of the forward-looking statements, whether as a result of new information, future events or otherwise. \f28 \par \par \uc2 \f2 \par Media Contact: \par  \par Lisa Guiterman \par (202) 330-3431 \par media@kalobios.com \f28 \par \par \uc2 \f2 (END) Dow Jones Newswires\f28 \par \par \uc2 \f2 April 11, 2016 08:00 ET (12:00 GMT)\f28 \par \par \uc2 Document DJDN000020160411ec4b001l1\par }\page {\par\fs20\b \uc2 Pharmaceutical Companies; \uc2 Amneal Pharmaceuticals \highlight22\uc2 Announces the Launch \highlight\uc2  of Diclofenac Sodium Topical Gel 1%\b0\par\par\uc2 342 \uc2 words\par \uc2 8 April 2016\par \uc2 Drug Week\par \uc2 DRGW\par 119\par \uc2 English\par \uc2 \u169\'00\'A9 Copyright 2016, Drug Week via NewsRx.com   \par \par \uc2 2016 APR 15 (NewsRx) -- By a News Reporter-Staff News Editor at Drug Week -- \uc2 Amneal Pharmaceuticals LLC\b \highlight22\uc2 announced the launch\b0 \highlight\uc2  of its first-to-market generic equivalent of Voltaren(R) Gel (diclofenac sodium topical gel) 1% in the United States. Amneal recently received final approval from the \uc2 U.S. Food and Drug Administration\uc2  for its Abbreviated \b \highlight22\uc2 New Drug\b0 \highlight\uc2  Application for the product.\par \par \uc2 Amneal's diclofenac sodium topical gel 1% is available in a 100g tube and is now shipping through wholesalers, distributors and directly to the trade.\par \par \uc2 "We are very pleased to be the first generic supplier of diclofenac sodium topical gel," said Chirag Patel, Co-Chairman and Co-CEO. "This significant milestone continues to demonstrate our ability to bring complex dosage forms to our customers and patients, and generate savings to the healthcare system."\par \par \uc2 According to \uc2 IMS Health\uc2 , the U.S. sales of diclofenac sodium topical gel were approximately $413 million, for the 12 months ending January 2016.\par \par \uc2 Click here for full prescribing information. About \uc2 Amneal Pharmaceuticals LLC\uc2 Amneal Pharmaceuticals LLC\uc2  is a global supplier of generic pharmaceuticals, vertically-integrated across the entire supply chain from R&D to finished goods. Since its inception in 2002, Amneal has invested extensively in R&D resources, manufacturing infrastructure, and strategic expansion opportunities-all contributing to its significant growth. The Company prides itself on its unwavering commitment to quality, strong business relationships, and innovative approach to maximizing value. Amneal is privately-held with U.S. headquarters in Bridgewater, New Jersey and international headquarters in Zug, Switzerland. For more information, please visit {\field{\*\fldinst{HYPERLINK "http://www.amneal.com"}}{\fldrslt{\cf2 \uc2 www.amneal.com}}}\uc2 .\par \par \uc2 All trademarks are property of their respective owners. View source version on businesswire.com: {\field{\*\fldinst{HYPERLINK "http://www.businesswire.com/news/home/20160324005826/en/"}}{\fldrslt{\cf2 \uc2 http://www.businesswire.com/news/home/20160324005826/en/}}}\par \par \uc2 Keywords for this news article include: \uc2 Amneal Pharmaceuticals LLC\uc2 , Pharmaceutical Companies, Drugs, NSAID, Therapy, Diclofenac, Phenylacetates, Topical Agents, Ophthalmic Preparations, Cyclooxygenase Inhibitors, Ophthalmic Antiinflammatory Agents.\par \par \uc2 Our reports deliver fact-based news of research and discoveries from around the world. Copyright 2016, NewsRx LLC\par \par \uc2 Document DRGW000020160408ec4800008\par }\page {\par\fs20{\*\shppict{\pict\pngblip\picw112\pich40\picscaley100\picscalex100\picwgoal1680\pichgoal600
47
494638396170002800E60000004A8E5989B62B66A19BB8D300146DE3ECF3ABC2DA326BA4F5FAFCB8CFE16487B5DAE9F11C5B9A739BC13B73A9A5BAD5D7E3EEFA
FEFE26619EB3C7DD4677AB135193D3DCE9004D900041896792BC013A855475A996A9C9CCDBE9EDF5F9015294002B7B175B99215C9A7AA3C6134D91899CC13658
98193B85E9F0F68BABCB7794BD0B448B17468C83ABCB456CA4F1F6F9BFD3E4E4F4F818539599B0CE386DA600448A013481233A8500478C718CB80D4C9009498E
001F74EDFAFC002F7EE5EFF5CED4E521478D37609C8BB0CE2B5E9C8398BF90A1C544599980A0C54B639E82A5C8CCDFEC07478C1A5998172779234D91C8CFE12B
51931F609CC5DAE80026785B7FAF556AA2093A85C2C6DC3167A26C78AB3B66A1C0D7E7013E8704418920509305448B0D35820B2E7D364D91CAD8E71758973040
890F1D7010559688A5C82D70A7222C7B004088396FA70005625181B191B2D00D40891B5697EEF2F70924772757974B7EAFC9E6F0E8F8FBDFEFF59FC0D903448A
E1E6F0403C84366FA7FFFFFF21FF0B584D502044617461584D503C3F787061636B657420626567696E3D22EFBBBF222069643D2257354D304D7043656869487A
7265537A4E54637A6B633964223F3E203C783A786D706D65746120786D6C6E733A783D2261646F62653A6E733A6D6574612F2220783A786D70746B3D2241646F
626520584D5020436F726520352E362D633133382037392E3135393832342C20323031362F30392F31342D30313A30393A30312020202020202020223E203C72
64663A52444620786D6C6E733A7264663D22687474703A2F2F7777772E77332E6F72672F313939392F30322F32322D7264662D73796E7461782D6E7323223E20
3C7264663A4465736372697074696F6E207264663A61626F75743D222220786D6C6E733A786D704D4D3D22687474703A2F2F6E732E61646F62652E636F6D2F78
61702F312E302F6D6D2F2220786D6C6E733A73745265663D22687474703A2F2F6E732E61646F62652E636F6D2F7861702F312E302F73547970652F5265736F75
726365526566232220786D6C6E733A786D703D22687474703A2F2F6E732E61646F62652E636F6D2F7861702F312E302F2220786D704D4D3A4F726967696E616C
446F63756D656E7449443D22786D702E6469643A31333464646664372D333863352D343931342D393763642D6536323166353162393836332220786D704D4D3A
446F63756D656E7449443D22786D702E6469643A42434235393642363343433231314538424441434143323846354633383935442220786D704D4D3A496E7374
616E636549443D22786D702E6969643A42434235393642353343433231314538424441434143323846354633383935442220786D703A43726561746F72546F6F
6C3D2241646F62652050686F746F73686F70204343203230313720284D6163696E746F736829223E203C786D704D4D3A4465726976656446726F6D2073745265
663A696E7374616E636549443D22786D702E6969643A31333464646664372D333863352D343931342D393763642D653632316635316239383633222073745265
663A646F63756D656E7449443D22786D702E6469643A31333464646664372D333863352D343931342D393763642D653632316635316239383633222F3E203C2F
7264663A4465736372697074696F6E3E203C2F7264663A5244463E203C2F783A786D706D6574613E203C3F787061636B657420656E643D2272223F3E01FFFEFD
FCFBFAF9F8F7F6F5F4F3F2F1F0EFEEEDECEBEAE9E8E7E6E5E4E3E2E1E0DFDEDDDCDBDAD9D8D7D6D5D4D3D2D1D0CFCECDCCCBCAC9C8C7C6C5C4C3C2C1C0BFBEBD
BCBBBAB9B8B7B6B5B4B3B2B1B0AFAEADACABAAA9A8A7A6A5A4A3A2A1A09F9E9D9C9B9A999897969594939291908F8E8D8C8B8A898887868584838281807F7E7D
7C7B7A797877767574737271706F6E6D6C6B6A696867666564636261605F5E5D5C5B5A595857565554535251504F4E4D4C4B4A494847464544434241403F3E3D
3C3B3A393837363534333231302F2E2D2C2B2A292827262524232221201F1E1D1C1B1A191817161514131211100F0E0D0C0B0A090807060504030201000021F9
0400000000002C00000000700028000007FF80026521650C522188884D87898452528388858C9265520C918E94848B8D8E0C8D6522908993A196A0A58F99658B
A9928FA18684026817353A5965350017381812123800C41872073A3817B74C82C3BE35120238CA00181559C9BD354C590CBCC4350C124CBDD6150715BCBECDDF
CBD622593BD5B85915CAB7350222CF00354D02983CC3A0E3009A616842D4D87140C43A006C24C81B664D461B19EBB86511D6EB978403F32E9CA3212723930302
6A54C3C000D9CA0A6D9AACC3D18CA32F0C22DAE800878B64C63D02048059D9C4A54882341C12235450049B8E110F300187C1620536CBB81D9080A163341A606A
2CBBE60063D69302BA8A6423C2CF0EB1E7FF1CC8E9D2114C16017BA0E6DC9955871F3918B2DA15E0852832B117083A1041576488261B9FFA8AE867EA51AB586F
813940C44B470C52A43E05D08544D92EC3306C16D0A5711711A2C75638BDCDCB5D2F544538D08141250EBF7224D7F022200B866A6C9AF8E10B51C7E2C6D44230
403393F2D45E55DB54089C588784153CA880C0C0A48C8E3D357C80A062034D05F5EB41A03960833D081F521C84E1E1838A0F190EB0C0C3051FD440451D6AD4D7
1F154DEC660308F5D9E0871436F850CC0E6558465A133A21C686732268E095250A41254165DC5D43830CDC71F3110523B4E0021568BCF1461732B4D0C01B030C
E05C0B1928F0801220D091010C2AACC0C0FF0E4264D0420E41348106116F5CA0811719D861431D01B450C4163ABC27460606CCD0461C1A48F106001A1C800411
1A88D4851C0E90C0DD878B89F8010E6C04D5440826B6C1448A30B178961F1A54F187056420A042176FF450C70913F0F1071F09301000141144B004123C341081
012FC0B01F177F60814002E0C1F1030B6EB8F0470604CC906A01085441800D03FC31010A2F3CC1430605A0C186037F703060170DDA39168874EDD9C547E501EA
118AB25DA4163734084040117F1CE186AA363880C016E1A9F0C706037A4107107C884185097F94E0461A7F5841C012069C4141040AB831C0025EF8E007020D10
F0EB155F2C3105011BFC91030F24F03101FF010AA0E0000651FC31030FCCD69919063BB4C15847D31E101622D69C38E85824B401D836274950030FE08E410012
7380E1800744D8D00505EB125083061AC00004153C2421B11B22E8B105151D4CD04518733CE0C6100550A8C30F09CFF0830EC32E00420E7F4CCD430E23D04101
0A6D50D1B11104349BD9427E9C3C19B56211B207DFB2AD080E4D5B754585BA148010C00F4C383087411A58F1870220E8A383011660A041184B2CE1030F1A6060
43070910E0C41F46B8D102024410408207093FF08318048C000115689B00C2075D6860430305784180191194E083C8DB30C4805A7C0A20155C8F496459628532
DF0D57CAACFD870B0A7BE0C3BF5568C043FFC4555021800420180081066CB0F1EF046280DC85051D68318301715031F00A04C8E04106549840019E6082511100
0E08F802847800820B200105346081152200071CD8297907F8C6678A139665E0403A22B845B630420C1CEC200B2238CE3278A0803F00010805A0000FDEF0822D
80000411DBC00EF0E2830958C0062DA1C2113C00812080A00C309803145E900210306102106042FF5090021BA4E1050BC81A0B343080089CE00A70484300E240
0104A0800F28F803122A87410DFA022859408F0775008A7E5C435B1D69865244723425A0AE0A4D0041171A300722A827620D500D0E6C30810E9040003B10DF13
16000111F8A003067042107EF0002AA4A0FF00FC23C10F52C083194060031E78830D6AD0803F9C200C5D5CC219EC80020A3CA1854518D02D94373838CA313165
D807A02E834776A07026C0F082BAC6003A1DA021031EC8827A2497032A28C30706E0431976E08530E0800092D355D58A340120F04009A02400111040AB0740C0
0964E8407F94108127F827010B70421582C7832CA08E0A89511EF37C0997AAD0A0028320268B68B611649E487B4200013A86F6822C88076D1B682000B0C907DF
1D20014250670432C0034CD2E10A4AE3C11020F03901BC2076F11A41015840801678F10A1A30000AF45900484601011CA002C9F236D0E2A8102232F0833A5856
95B208E77A79B9890468B0039CFDC1041AFFF0830C7C40432280000019F84315BECA062F58C0021AF081ACECB585C911C0027AF0010B16000502B492086E686B
000820BB0A0801756E68A10278C00328C87203B5A4C218924500BFA4B02340494B35E6E480ED000011D991C1DD362301CF4895062BC0010F8C90363904C70601
F08000481087882940A80CA840070A80341BE821024800420F9E40800EFCE10130F0000508F0D305E4000231E0ED042210073A4C610954A003AA8A6080080C37
033F68020FE8A5ACE74056227B982C9DAEB20C4260E62C28290C34A63A950FD8600B0FB0C35B1223801450000D2010821EB20082B65C210023C00006BAC08007
E0810B51A082064690001818C0053ED843FF17DA00831E4CC09E714082127AE70738D401471C88C102D8C5820CA4C14A3248411544E014007C0000BEC4C18B29
7B958E14421023EB820088102D6B30200B2BE0450D7A538632F4AE2BD70811352054949D54A8062450431C40D71F26A88104E1518F0624A0062A10C07754708E
0E40308CF570D906A0437305A4FCD50F68800A2190401754326011E08518BE2B03052AD0050F7E30046F814A05C04305F6EC410415608F9B41A7063430B04220
78447F6C00001B5CE1033EA046A1652080377B990756C672A1A9A0E303C487003C98CDF2E043EA82B917D55210C0E77CF0010C44387417500F153CD3E737FBC0
0B158803627021011184E01935B001051EFF908614A4400157685C03D240011FD861002920020FA29086090C40013B28D7001AA08127E861008913808EA44001
0DB7000E0D38000682A08404E8C1052B38800FA230002E0C40085F68C280DF900225C0E10133B043170230EE3AD000092978830F4800070334200E2C1881B30D
900209F8E00A2A98000C7220C802AD800612904308B2328F3744E00F308F00192AF00504FC960043F8031E6E208629C0FC0F08D840EDFED083281CE1E53D5883
A2681B809FC3FC085480C1CF3DA0021E08C1E63F7700997D0004A7FF61003630C01FA67006B42D4A7130EF8119CC807598BF810E62FF39127CA00126A0BC0609
255C1C84E0013566E0057F38C009E6803AFF1EE8E10F0B10430B110681450DEB0F1138C209F20073131C00011040FB0BE0908211680F010A20830B55FA8704BC
A1F170A03B1BEC30044B8D720B61FF83010860F60234A1953A37C30D62E02B1534400644F8C3FF52407413F0C00F36FB334DEE62F5BE1FC1060BF8831D4E5080
3FA440030FF803046C00AE39ACC1050998810FC21A831BDC80F27F68801D5EF0C3A67B807BFD81C31F0AE0840D24800339FD3A0B21308238D0650757D02B5C00
026ED030B2B7362F870202807B79700263607301E00685D6740DB80677600026F005C9770184703D3500025BD0772E200269E40771507D1FD3028827065A0073
45400727E503AD547EBB077309F077ED07FF74426720EAE23162400796D62BB3420074B003B7506C62907D53501F02E05B0680807F30076F9073C2570726D077
00F46B4D277B61400057A0065270548F713EBC00827D47492F9006364002D5473739B700611005BC372AC2B202B6428331800073300703800016E0034D17017C
C0077BF505D1277BF6C4553F370361604D41E1055720766480067B000613207B181301C0024508D0296330797FF00316300015C00252B72842100765400D22F1
41527010BD905F7DF7022FF03F54200384E786F3E70754B00196327F5BB0607F40833D600170300780D7013610567F00780DC00336A000D5377F86440245F072
7F400641F048831289DA97053C80527FA0FF075695008D87020FF0023B5783088000301007205007BE0573002416D4800687D00F54E00236B762D517004D9046
BA380734C00304100409007350F07834E88707308F64A00348207C0A100415606C3C700209F90730200257E00644D0785F4702228203DEB80455B5025297001A
002E157729F4D403E6C77B03B022FEC00362602BDAF7043E708402000A75C1066F607349D05BB2F70596622F2A58442BE000271040DA875A7F90072C402F1E40
027117454D170363E0062BA006592078E9337F0CF0050E40079CF3071D700236700B6120765370337120755CA078113002616501ADB48EBC472B3C500321E007
4F60031C00731B4005D19005D522552440FF043FF00749C0034BF00770307880A5820BA00185C90567002E10C0064D870042C002BC770355F0721D807631607C
632676B2A42816000097C801F7F2074B100471A2012420751D205A5790907A407B11D0007EF0072D40033A677E94B757FD11567960037D60983CC03788E01171
73043637032960732A7006A8020169107D30400025007329207A164005618500BA87077F60062BF0982C159A133001091006E5F90745909040000287370501E0
5B7A10061A500315C00009B90452C4023E37013CA02E29200008F0067FB5736CA7963D92056DF5024850983F100571E0071D4408C040553CE002D8087330C002
FB984631F706041007F3287C42B7973740FF3C57A50193C907E3E7755640051B297CBAB20584077335E403C9910594A2965DD04FD1573AEA020375F00314D056
1EF0044EE374231006419A7ED1305F1CD804EC55033520036FD00070A0021B802638000214900270A0045EA50138B0051910A733B202671A002BB0020110004A
950519F0066CC0004AA0040A90011910023CF0052D30004AE00236800120D0064300A975E00304A6131A40010D40014C20014DE0A914B0256274050E80066590
030D40032410008A9AA801C00461A0000330042EB00352C01B1E640912C0AB6E466B6F062100B003120006FEA11E362001FA91AC54B00375C21F2FC6033BB403
EAE10350A603FD711F6C400232A00137E4FF0324F3ABE2711F1AC021242016E22306C8D705CA8A03DB64038B74343E8006C6724385E64C9586AF5EB0ABC3B603
75840FDDAA55742A127B701760206035C016BB41671AE0174DC006BC8003D38217F6382754851AA4B10213D21ABC0006C5C1046CD01B18C02196951827A13747
E33C1D8454CB411710611B2DB6275BE21629C269C6860F18601A02E7158F881CBAA10399F11B7ED0B393C1B288610CCBF1AF26A31630561CE1B50C6C305EDBB2
037923197C0238155159C2C159510B632E43282B3208E10013C1610E3810144371147BC11DBF7100320159503B6C724003CCD1134E510D38200D6BEB0F72A01D
CCD314CC130DCFC347327050D65338D5F0843785EB0F8502986800006F1BB1682B05C7AAB7C7C0AB22B143462BB9D2F04B38800D3BD11127F45825C40001410F
E870B20010AA8FC547F1A021A16B0F6E9BB652A012AD0819D3F3B6248406821002ABE00952D00491300897C00AC12B09E340BCAA400ACA0B099900BCCC9B08C9
8B088610BDD21BBDD56B09D09B08AE80BCA4104C8100003B}}
\par\par \b \uc2 Five things to know today, and Trump campaign opens office in region\b0\par\par\uc2 Paul J. Gough \par \uc2 248 \uc2 words\par \uc2 7 April 2016\par \uc2 Pittsburgh Business Times Online\par \uc2 PITBJO\par \uc2 English\par \uc2 \u169\'00\'A9 2016 American City Business Journals, Inc. All rights reserved. \par \par \uc2 Here are five things to know in Pittsburgh-region business Thursday: Property sale in Hempfield canceled\par \par \uc2 The Westmoreland County Blind Association's purchase of a former Shop 'n Save in Hempfield for vocational training has fallen through after environmental issues were discovered, {\field{\*\fldinst{HYPERLINK "http://triblive.com/news/westmoreland/10263489-74/association-asbestos-building"}}{\fldrslt{\cf2 \uc2  the Pittsburgh Tribune-Review reported}}}\uc2 . Mylan \b \highlight22\uc2 launches new product\b0 \highlight\par \par \uc2 Mylan NV, which is run from Southpointe, {\field{\*\fldinst{HYPERLINK "http://www.prnewswire.com/news-releases/mylan-launches-generic-epivir-tablets-300247142.html"}}{\fldrslt{\cf2 \uc2  launched a generic version of the ViiV Healthcare Epivir Tablets}}}\uc2 , medication that treats HIV. The drug had sales of $27.1 million in 2015, according to \uc2 IMS Health\uc2 . CMU professor wins NSF award\par \par \uc2 CMU Assistant Professor Wolfgang Gatterbauer has received a prestigious award from the \uc2 National Science Foundation\uc2  for his work to draw conclusions from uncertain data sources, {\field{\*\fldinst{HYPERLINK "http://www.prnewswire.com/news-releases/gatterbauer-receives-nsf-early-career-award-300247102.html"}}{\fldrslt{\cf2 \uc2  the university said}}}\uc2 . The five-year, $550,000 award is from the Faculty Early \uc2 Career Development\uc2  program. Bruster's Real Ice Cream opens in South Korea\par \par \uc2 A little bit of Pittsburgh is now in South Korea: Bruster's Real Ice Cream {\field{\*\fldinst{HYPERLINK "http://www.businesswire.com/news/home/20160406005405/en/South-Korea-Welcomes-Bruster%E2%80%99s-Real-Ice-Cream"}}{\fldrslt{\cf2 \uc2  opened its first franchise}}}\uc2  in South Korea in Seoul, the first of 10 shops in the country. Trump campaign opens office in Pittsburgh region\par \par \uc2 An office for the Donald Trump presidential campaign will be opening Friday on William Penn Highway in Monroeville, {\field{\*\fldinst{HYPERLINK "http://triblive.com/politics/politicalheadlines/10264620-74/campaign-trump-pennsylvania"}}{\fldrslt{\cf2 \uc2  according to the Pittsburgh Tribune-Review}}}\uc2 .\par \par \uc2 Did you find this article useful? Why not {\field{\*\fldinst{HYPERLINK "https://secure.bizjournals.com/subscribe/selectTerm?market=pittsburgh&ana=cstpd&csrc=6355"}}{\fldrslt{\cf2 \uc2 subscribe}}}\uc2  to Pittsburgh Business Times for more articles and leads? Visit bizjournals.com/subscribe or call 1-866-853-3661.\par \par \uc2 Document PITBJO0020160407ec4700005\par }\page {\par\fs20{\*\shppict{\pict\pngblip\picw114\pich40\picscaley100\picscalex100\picwgoal1710\pichgoal600
47
494638396172002800F7000006080907090A090B0CFEFEFEFDFDFDFCFCFCEDEDEEF5F5F5FBFBFB0A0C0DF8F8F8F1F1F1F6F6F60E10110B0D0E828383F0F0F0F7
F7F7F2F2F21E20210C0E0F121415080A0B131516FAFAFABCBDBD0D0F1027292AF3F3F31A1B1C111314212324303233232526EFEFF018191A151717CCCCCD1B1C
1D101213F4F4F4696A6B3C3D3EB7B8B8A6A6A7313334D5D5D53638382B2D2E161818141617CECECF292B2CF9F9F9A9A9AAE8E9E9E6E7E7BFC0C0585A5A4D4E4F
191A1BEAEBEBCBCBCC777878A7A7A8AEAEAFC1C2C2ACACAD2C2E2FDBDBDB7A7B7BD7D7D78C8D8E2628298081811E1F203F4041BBBCBC2D2F30C0C1C1ECEDED7D
7E7EE5E5E5E9EAEAEEEEEFC7C8C89798984041420F11123537375F6061E7E8E8D3D3D34344454A4B4C6F7071BABBBBC2C3C3989999EBECECA2A3A3B2B2B23436
362224253335363A3C3C2E3031E4E4E4B5B6B6E1E1E1626364282A2B7B7C7C727374CFCFD0DFDFDFCDCDCE48494A969797B4B5B5B8B9B9171919444546CACACB
A5A6A65C5E5E252728DADADAE6E6E69FA0A0D8D8D84546476667681D1E1FAAAAAB1C1D1E4748493739399596968B8C8DC4C5C5A1A2A29D9E9ED1D1D17F80805D
5F5F575959999A9AADADAE68696A616263414243707172AFAFB0555757747575595B5B525455646566E3E3E3C9CACAE0E0E08A8B8C8283846364655052537374
74BEBFBF4E4F502A2C2DDDDDDDD2D2D2B9BABA535555ABABAC6A6B6CBDBEBE9192939293939E9F9F242627494A4B6E6F709A9B9B9C9D9DDCDCDCC3C4C4C5C6C6
868788B1B1B2383A3A6D6E6F1F21229B9C9C8788895051525B5D5D797A7A515354848586323435E2E2E24B4C4D202223A4A5A5676869A8A8A9898A8B9394943B
3C3D3D3E3FC8C9C97E7F7FB0B0B19495959091925E6060B3B3B3D0D0D18E8F90A0A1A17879795456567576766B6C6D5A5C5CDEDEDEB4B4B4C6C7C76C6D6E4F50
51D9D9D9D4D4D48F9091A3A4A4656667B6B7B77C7D7D71727388898A424344393B3B4C4D4E2F31325658588384853E3F40767777D6D6D6464748858687606162
8D8E8F818282050708FFFFFF21FF0B584D502044617461584D503C3F787061636B657420626567696E3D22EFBBBF222069643D2257354D304D7043656869487A
7265537A4E54637A6B633964223F3E203C783A786D706D65746120786D6C6E733A783D2261646F62653A6E733A6D6574612F2220783A786D70746B3D2241646F
626520584D5020436F726520352E362D633131312037392E3135383332352C20323031352F30392F31302D30313A31303A32302020202020202020223E203C72
64663A52444620786D6C6E733A7264663D22687474703A2F2F7777772E77332E6F72672F313939392F30322F32322D7264662D73796E7461782D6E7323223E20
3C7264663A4465736372697074696F6E207264663A61626F75743D222220786D6C6E733A786D704D4D3D22687474703A2F2F6E732E61646F62652E636F6D2F78
61702F312E302F6D6D2F2220786D6C6E733A73745265663D22687474703A2F2F6E732E61646F62652E636F6D2F7861702F312E302F73547970652F5265736F75
726365526566232220786D6C6E733A786D703D22687474703A2F2F6E732E61646F62652E636F6D2F7861702F312E302F2220786D704D4D3A4F726967696E616C
446F63756D656E7449443D22786D702E6469643A30323830313137343037323036383131383038334146373433433236323731452220786D704D4D3A446F6375
6D656E7449443D22786D702E6469643A42384642314346413530463531314536393838464545313643313433353536382220786D704D4D3A496E7374616E6365
49443D22786D702E6969643A42384642314346393530463531314536393838464545313643313433353536382220786D703A43726561746F72546F6F6C3D2241
646F62652050686F746F73686F702043533620284D6163696E746F736829223E203C786D704D4D3A4465726976656446726F6D2073745265663A696E7374616E
636549443D22786D702E6969643A3443454533314539313945393131453341463330383738423534393031323445222073745265663A646F63756D656E744944
3D22786D702E6469643A3443454533314541313945393131453341463330383738423534393031323445222F3E203C2F7264663A4465736372697074696F6E3E
203C2F7264663A5244463E203C2F783A786D706D6574613E203C3F787061636B657420656E643D2272223F3E01FFFEFDFCFBFAF9F8F7F6F5F4F3F2F1F0EFEEED
ECEBEAE9E8E7E6E5E4E3E2E1E0DFDEDDDCDBDAD9D8D7D6D5D4D3D2D1D0CFCECDCCCBCAC9C8C7C6C5C4C3C2C1C0BFBEBDBCBBBAB9B8B7B6B5B4B3B2B1B0AFAEAD
ACABAAA9A8A7A6A5A4A3A2A1A09F9E9D9C9B9A999897969594939291908F8E8D8C8B8A898887868584838281807F7E7D7C7B7A797877767574737271706F6E6D
6C6B6A696867666564636261605F5E5D5C5B5A595857565554535251504F4E4D4C4B4A494847464544434241403F3E3D3C3B3A393837363534333231302F2E2D
2C2B2A292827262524232221201F1E1D1C1B1A191817161514131211100F0E0D0C0B0A090807060504030201000021F90400000000002C000000007200280040
08FF00FF091C48B0A0C18308132A5CC8B0A1C3870409B878E1AFA2C50B3F92112038458D3F07162B8E8048B2A4C987AE2CEA108861D8453A03415DB0E865E3C2
31E70E28A404C4C5B993FFA414B16912829C02734221E412B269C56E03C7D0C1C384D5C194FE02C01458E419B73DCEA6E060B1EB1F9E67A28214A806EB5F1320
08C0045081E21F032B90B2FD1B736BC6BF6A4D06547950CD87A102E7C424FB97AD5EBA55FF7C582910CACA9A7FA01EA8A3E4A38D2205E3D8212CA190C106A7A8
43F23000B4B5EBD727677CA8186900ECDBB80B8AB39884E139D6B200580CD42E41EEE3B915A44AED2F5319194E4D401058057A0717030764ABE04097297FAD94
01FF78A7C91F377BFE64918071279A3F7416B0F1F167C35FAA200D6885F10763933F62CCF8A3C71D5AF8F30B45542CC1C313147442C421B878F041300E08530D
1F51F8A30410FE18B0410B067D61110FAA0C440007FF0CC15C451310144E48883080DC8C34FEF3842D963C51E38E3CBE36C01E6968D3E390348671454809E041
E492084DA3814594484010065BB802831D04F5804553B130E925416458140C418B38F08941112C635108380834CD97700A44414514B0924C6A62F0621100A2FD
13481D061541833FFF44114006DA2030D01E53FCE3C204CB809208A150FC43C0020BFC03410911FC53C07447F4F04F04FE70C280261E2CE0C3401CF85097043A
71FFF02A8A7FC82190231D7E989004C0A496C46202E1338245291484424501E828D0271B60F1CF0301E8C28A3F9AE811C023103C7204307AFCC304A1EDF89300
3578F843C83F4900F0843FA6FC63C215FFF863CB3F9D6870402CFE64E00F3280F4A0CA01FE08B0CF1B16C83045009E1CE14F39F57908624103D861414500E4F0
0F19003820C08AFE24A140411C56548A6D40DD1007207122B48870FED090294244709CDA2D29D7EC6653F52CD0C6386EA042030C5E8C824E5D36176DF4D13C2E
A013D24C1B9B21325434DDF402DB5814001252F308051FB338C2C29909153353481AB4993572B7B0EC4F17FCB000043FAD7CA0033E03F9D0C810833425C9D9C8
2DFF272E100AF1420D06A39A61110527F88332DFB8CD571124052D6DD01A1E5874EE2EC6309E5B23166D3350110DF873461805C11152109ACF28C58884CFE294
220370E08B452408448094051170835F3FF8B302420520E2CF3215104AD21C6DFCE3853FB89B64853F507410C242E404409313A9390052459C287A849A589B08
0700000C428A3F1F54108201508010C008A3AC03400297508444213E6833410AB3146241087B98C104D0508142D061360EA845250460820AB442013E58823F42
1004275CE100C8C807074060861424200134D882EB1CA6905B6C0C35E110081B12D094DF0DC4162223482E3ED0807F2821007B38853F6A71097F84CE1F814802
22FFBC45286450201C2308843F5027097FE8100EFF380113E2F5837FB44200FF9085EF7C58110D20C102F038830054E08F23B40300D07945C37485905730C713
052902F6FC70038334D11FF3B00901EA203A526880116048C02B98B1257F744001210054171CF08F64584000A7F8070C024681454C2300F7F807B7FE3113277C
E10207B04600D8100516FA031CFF4043B2E21080674C615832A000265C01000310E10508418345CE500DB511EB1F9628840C6290872A1A641C14AB876BAA3027
74306D0CBDAA882606428D57D84166CF28881F2C12A3D491A45C14EBD24156F043D434401DDFE8845352E84D8810E00F3BF0872E12C2850EC8CC2985E8543B8F
331D001034E503DF4A8D174AB44F1A59A178FEA800410BCAD0863A546A0101003B}}
\par\par \b \uc2 Mylan  \highlight22\uc2 launches \highlight\uc2  generic Epivir tablets in U.S.\b0\par\par\uc2 106 \uc2 words\par \uc2 6 April 2016\par \uc2 Theflyonthewall.com\par \uc2 FLYWAL\par \uc2 English\par \uc2 (c) 2016. Theflyonthewall.com.  All Rights Reserved.   \par \par \uc2 Mylan announced the U.S. \b \highlight22\uc2 launch\b0 \highlight\uc2  of Lamivudine Tablets USP, 150 mg and 300 mg, which is the generic version of \uc2 ViiV Healthcare\uc2 's Epivir Tablets. Mylan received final approval from the \uc2 U.S. Food and Drug Administration\uc2  for its Abbreviated \b \highlight22\uc2 New Drug\b0 \highlight\uc2  Application for this product. Lamivudine Tablets is a nucleoside analogue reverse transcriptase inhibitor indicated in combination with other antiretroviral agents for the treatment of HIV-1 infection. Lamivudine Tablets USP, 150 mg and 300 mg, had U.S. sales of approximately $27.1M for the 12 months ending Dec. 31, 2015, according to \uc2 IMS Health\uc2 . \par \par \uc2 Document FLYWAL0020160406ec460060p\par }\page {\par\fs20\b \uc2 Interventional Spine, Inc\uc2 .  \highlight22\uc2 announces New \highlight\uc2  Line of Opticage\u174\'00\'AE Lumbar Interbody Fusion Implants\b0\par\par\uc2 Interventional Spine, Inc.; PR Newswire\par \uc2 434 \uc2 words\par \uc2 5 April 2016\par 11:37\par \uc2 PR Newswire Asia\par \uc2 PRNASI\par \uc2 English\par \uc2 Copyright \u169\'00\'A9  2016  PR Newswire Association LLC.  All Rights Reserved.   \par \par \uc2 IRVINE, Calif., April 5, 2016 /PRNewswire/ -- \uc2 Interventional Spine, Inc\uc2 . today \b \highlight22\uc2 announced the launch\b0 \highlight\uc2  of a new line of products that will be showcased at this year's International Society for the Advancement of Spine Surgery (ISASS) Annual Meeting in Las Vegas, NV. The \b \highlight22\uc2 new products\b0 \highlight\uc2 , available at exhibit booth #229, include recent size additions to the Opticage\u174\'00\'AE Lumbar Fusion line of spine products, as well as lordotic versions of the interbody device.\par \par \uc2 Logo - {\field{\*\fldinst{HYPERLINK "http://photos.prnewswire.com/prnh/20100419/LA88318LOGO"}}{\fldrslt{\cf2 \uc2 http://photos.prnewswire.com/prnh/20100419/LA88318LOGO}}}\par \par \uc2 "We are proud to introduce this year's line-up of new minimally invasive spine products at ISASS and provide an opportunity for surgeons to see a demonstration of the new products," said \uc2 Joseph Darling\uc2 , Interventional Spine's Chief Operating Officer. "These new and innovative devices, which build upon our existing line of products, are designed to assist surgeons in delivering superior patient outcomes in an affordable manner for Lumbar Fusion Surgery. Important to note is that this latest generation of the Opticage is derived from, and uses the same basic mechanism, as the original Opticage expandable which has been used in over 2,500 clinical cases. We look forward to showcasing their benefits at the ISASS meeting."\par \par \uc2 The new product features include the following:\par \par \uc2 Opticage G3\par \par \uc2 *Superior Expansion Strength (1600N)\par \par \uc2 *Support for Multiple Surgical Approaches including PLIF, TLIF and Lateral\par \par \uc2 *Intraoperative Flexibility\par \par \uc2 *Significant Graft Window Size\par \par \uc2 *Lateral and TLIF designs for parallel and lordotic applications\par \par \uc2 OptiGraft Inserter\par \par \uc2 *Offers opportunity to fill the Opticage with additional flowable graft material post expansion in situ.\par \par \uc2 In addition, during the Scientific Sessions on Wednesday, April 6 at 5:30PM, Dr. Rudolf Morgenstern, longtime collaborator to \uc2 Interventional Spine, Inc\uc2 . will be presenting his experience with the Opticage, in an oral poster titled: "Percutaneous Transforaminal Lumbar Interbody Fusion (pTLIF) with a Posterolateral Transforaminal Approach."\par \par \uc2 Interventional Spine, Inc\uc2 . is a privately held company based in Irvine, California, that designs, develops, and markets patented implantable devices for the spine that can be deployed via both surgical and minimally invasive techniques. Supported by the Company's unique product introduction systems, Interventional Spine's products provide benefits to patients, surgeons, and healthcare facilities alike.\par \par \uc2 For more information on the Company and its products, please refer to our website at:\par \par {\field{\*\fldinst{HYPERLINK "http://www.i-spineinc.com/"}}{\fldrslt{\cf2 \uc2 www.i-spineinc.com}}}\par \par \uc2 FOR FURTHER INFORMATION CONTACT:\par \par \uc2 Walter A. Cuevas, Chief Executive Officer\par \par \uc2 (949) 472-0006\par \par {\field{\*\fldinst{HYPERLINK "http://rt.prnewswire.com/rt.gif?NewsItemId=AE63508&Transmission_Id=201604051137PR_NEWS_ASPR_____AE63508&DateId=20160405"}}{\fldrslt{\cf2 \uc2 http://rt.prnewswire.com/rt.gif?NewsItemId=AE63508&Transmission_Id=201604051137PR_NEWS_ASPR_____AE63508&DateId=20160405}}}\par \par \uc2 http://photos.prnewswire.com/prnh/20100419/LA88318LOGO\par \par \uc2 Document PRNASI0020160405ec450015p\par }\page {\par\fs20\b \uc2 MilliporeSigma\b0\par\par\uc2 263 \uc2 words\par \uc2 1 April 2016\par \uc2 BioPharm International\par \uc2 BPI\par \uc2 English\par \uc2 BioPharm International is a copyrighted publicaton of Advanstar Communications Inc. All Rights Reserved.   \par \par \uc2 The life-science business of \uc2 Merck KGaA\uc2 , Darmstadt, Germany, which operates as MilliporeSigma in the United States and Canada, offers a broad range of products that span from research and development to production. We partner closely with pharmaceutical manufacturers to simplify the complexities of advancing your molecules to market. Our decades of industry expertise and regulatory know-how help you get to clinical faster, allowing you to focus on what matters most\u8212\'20\'14delivering safe, effective therapies sooner to the patients that need them most.\par \par \uc2 Driven by innovation and fueled by a passion for science, we are proud to \b \highlight22\uc2 launch\b0 \highlight\uc2  the following \b \highlight22\uc2 new products\b0 \highlight\uc2  at INTERPHEX 2016:\par \par \uc2 * Lynx\u174\'00\'AE CDR connectors, a fail-safe alternative to time-consuming and costly configurations typically used in upstream and downstream processing\par \par \uc2 * Mobius\u174\'00\'AE 1000L single-use bioreactor, offering homogeneous and fast mixing and the industry's first pull-out, bottom-loading drawer and self-deploying bag for greater flexibility and convenience\par \par \uc2 * Mobius\u174\'00\'AE Power MIX single-use system, which overcomes the challenges associated with difficult-to-mix buffers, media, and biopharmaceutical ingredients\par \par \uc2 * Mobius\u174\'00\'AE single-use 3D large liquid transportation system for safe and convenient road transport for aseptic and non-aseptic substances and final bulk drug products\par \par \uc2 * Expanded portfolio of off-the-shelf cell culture media, available in a variety of formulations, for superior growth and productivity\par \par \uc2 Visit us at booth #2841 to learn more about these innovations and how they will help you improve productivity and lower costs.\par \par \uc2 MilliporeSigma\par \par \uc2 290 Concord Road,\par \par \uc2 Billerica, MA 01821\par \par \uc2 Phone: 781.533.6000\par \par {\field{\*\fldinst{HYPERLINK "http://www.emdmillipore.com/"}}{\fldrslt{\cf2 \uc2 www.emdmillipore.com/}}}\par \par {\field{\*\fldinst{HYPERLINK "http://www.merckmillipore.com/"}}{\fldrslt{\cf2 \uc2 www.merckmillipore.com/}}}\par \par \uc2 INTERPHEX Booth # 2841\par \par \uc2 Document BPI0000020160413ec410000j\par }\page {\par\fs20{\*\shppict{\pict\pngblip\picw114\pich40\picscaley100\picscalex100\picwgoal1710\pichgoal600
47
494638396172002800F7000006080907090A090B0CFEFEFEFDFDFDFCFCFCEDEDEEF5F5F5FBFBFB0A0C0DF8F8F8F1F1F1F6F6F60E10110B0D0E828383F0F0F0F7
F7F7F2F2F21E20210C0E0F121415080A0B131516FAFAFABCBDBD0D0F1027292AF3F3F31A1B1C111314212324303233232526EFEFF018191A151717CCCCCD1B1C
1D101213F4F4F4696A6B3C3D3EB7B8B8A6A6A7313334D5D5D53638382B2D2E161818141617CECECF292B2CF9F9F9A9A9AAE8E9E9E6E7E7BFC0C0585A5A4D4E4F
191A1BEAEBEBCBCBCC777878A7A7A8AEAEAFC1C2C2ACACAD2C2E2FDBDBDB7A7B7BD7D7D78C8D8E2628298081811E1F203F4041BBBCBC2D2F30C0C1C1ECEDED7D
7E7EE5E5E5E9EAEAEEEEEFC7C8C89798984041420F11123537375F6061E7E8E8D3D3D34344454A4B4C6F7071BABBBBC2C3C3989999EBECECA2A3A3B2B2B23436
362224253335363A3C3C2E3031E4E4E4B5B6B6E1E1E1626364282A2B7B7C7C727374CFCFD0DFDFDFCDCDCE48494A969797B4B5B5B8B9B9171919444546CACACB
A5A6A65C5E5E252728DADADAE6E6E69FA0A0D8D8D84546476667681D1E1FAAAAAB1C1D1E4748493739399596968B8C8DC4C5C5A1A2A29D9E9ED1D1D17F80805D
5F5F575959999A9AADADAE68696A616263414243707172AFAFB0555757747575595B5B525455646566E3E3E3C9CACAE0E0E08A8B8C8283846364655052537374
74BEBFBF4E4F502A2C2DDDDDDDD2D2D2B9BABA535555ABABAC6A6B6CBDBEBE9192939293939E9F9F242627494A4B6E6F709A9B9B9C9D9DDCDCDCC3C4C4C5C6C6
868788B1B1B2383A3A6D6E6F1F21229B9C9C8788895051525B5D5D797A7A515354848586323435E2E2E24B4C4D202223A4A5A5676869A8A8A9898A8B9394943B
3C3D3D3E3FC8C9C97E7F7FB0B0B19495959091925E6060B3B3B3D0D0D18E8F90A0A1A17879795456567576766B6C6D5A5C5CDEDEDEB4B4B4C6C7C76C6D6E4F50
51D9D9D9D4D4D48F9091A3A4A4656667B6B7B77C7D7D71727388898A424344393B3B4C4D4E2F31325658588384853E3F40767777D6D6D6464748858687606162
8D8E8F818282050708FFFFFF21FF0B584D502044617461584D503C3F787061636B657420626567696E3D22EFBBBF222069643D2257354D304D7043656869487A
7265537A4E54637A6B633964223F3E203C783A786D706D65746120786D6C6E733A783D2261646F62653A6E733A6D6574612F2220783A786D70746B3D2241646F
626520584D5020436F726520352E362D633131312037392E3135383332352C20323031352F30392F31302D30313A31303A32302020202020202020223E203C72
64663A52444620786D6C6E733A7264663D22687474703A2F2F7777772E77332E6F72672F313939392F30322F32322D7264662D73796E7461782D6E7323223E20
3C7264663A4465736372697074696F6E207264663A61626F75743D222220786D6C6E733A786D704D4D3D22687474703A2F2F6E732E61646F62652E636F6D2F78
61702F312E302F6D6D2F2220786D6C6E733A73745265663D22687474703A2F2F6E732E61646F62652E636F6D2F7861702F312E302F73547970652F5265736F75
726365526566232220786D6C6E733A786D703D22687474703A2F2F6E732E61646F62652E636F6D2F7861702F312E302F2220786D704D4D3A4F726967696E616C
446F63756D656E7449443D22786D702E6469643A30323830313137343037323036383131383038334146373433433236323731452220786D704D4D3A446F6375
6D656E7449443D22786D702E6469643A42384642314346413530463531314536393838464545313643313433353536382220786D704D4D3A496E7374616E6365
49443D22786D702E6969643A42384642314346393530463531314536393838464545313643313433353536382220786D703A43726561746F72546F6F6C3D2241
646F62652050686F746F73686F702043533620284D6163696E746F736829223E203C786D704D4D3A4465726976656446726F6D2073745265663A696E7374616E
636549443D22786D702E6969643A3443454533314539313945393131453341463330383738423534393031323445222073745265663A646F63756D656E744944
3D22786D702E6469643A3443454533314541313945393131453341463330383738423534393031323445222F3E203C2F7264663A4465736372697074696F6E3E
203C2F7264663A5244463E203C2F783A786D706D6574613E203C3F787061636B657420656E643D2272223F3E01FFFEFDFCFBFAF9F8F7F6F5F4F3F2F1F0EFEEED
ECEBEAE9E8E7E6E5E4E3E2E1E0DFDEDDDCDBDAD9D8D7D6D5D4D3D2D1D0CFCECDCCCBCAC9C8C7C6C5C4C3C2C1C0BFBEBDBCBBBAB9B8B7B6B5B4B3B2B1B0AFAEAD
ACABAAA9A8A7A6A5A4A3A2A1A09F9E9D9C9B9A999897969594939291908F8E8D8C8B8A898887868584838281807F7E7D7C7B7A797877767574737271706F6E6D
6C6B6A696867666564636261605F5E5D5C5B5A595857565554535251504F4E4D4C4B4A494847464544434241403F3E3D3C3B3A393837363534333231302F2E2D
2C2B2A292827262524232221201F1E1D1C1B1A191817161514131211100F0E0D0C0B0A090807060504030201000021F90400000000002C000000007200280040
08FF00FF091C48B0A0C18308132A5CC8B0A1C3870409B878E1AFA2C50B3F92112038458D3F07162B8E8048B2A4C987AE2CEA108861D8453A03415DB0E865E3C2
31E70E28A404C4C5B993FFA414B16912829C02734221E412B269C56E03C7D0C1C384D5C194FE02C01458E419B73DCEA6E060B1EB1F9E67A28214A806EB5F1320
08C0045081E21F032B90B2FD1B736BC6BF6A4D06547950CD87A102E7C424FB97AD5EBA55FF7C582910CACA9A7FA01EA8A3E4A38D2205E3D8212CA190C106A7A8
43F23000B4B5EBD727677CA8186900ECDBB80B8AB39884E139D6B200580CD42E41EEE3B915A44AED2F5319194E4D401058057A0717030764ABE04097297FAD94
01FF78A7C91F377BFE64918071279A3F7416B0F1F167C35FAA200D6885F10763933F62CCF8A3C71D5AF8F30B45542CC1C313147442C421B878F041300E08530D
1F51F8A30410FE18B0410B067D61110FAA0C440007FF0CC15C451310144E48883080DC8C34FEF3842D963C51E38E3CBE36C01E6968D3E390348671454809E041
E492084DA3814594484010065BB802831D04F5804553B130E925416458140C418B38F08941112C635108380834CD97700A44414514B0924C6A62F0621100A2FD
13481D061541833FFF44114006DA2030D01E53FCE3C204CB809208A150FC43C0020BFC03410911FC53C07447F4F04F04FE70C280261E2CE0C3401CF85097043A
71FFF02A8A7FC82190231D7E989004C0A496C46202E1338245291484424501E828D0271B60F1CF0301E8C28A3F9AE811C023103C7204307AFCC304A1EDF89300
3578F843C83F4900F0843FA6FC63C215FFF863CB3F9D6870402CFE64E00F3280F4A0CA01FE08B0CF1B16C83045009E1CE14F39F57908624103D861414500E4F0
0F19003820C08AFE24A140411C56548A6D40DD1007207122B48870FED090294244709CDA2D29D7EC6653F52CD0C6386EA042030C5E8C824E5D36176DF4D13C2E
A013D24C1B9B21325434DDF402DB5814001252F308051FB338C2C29909153353481AB4993572B7B0EC4F17FCB000043FAD7CA0033E03F9D0C810833425C9D9C8
2DFF272E100AF1420D06A39A61110527F88332DFB8CD571124052D6DD01A1E5874EE2EC6309E5B23166D3350110DF873461805C11152109ACF28C58884CFE294
220370E08B452408448094051170835F3FF8B302420520E2CF3215104AD21C6DFCE3853FB89B64853F507410C242E404409313A9390052459C287A849A589B08
0700000C428A3F1F54108201508010C008A3AC03400297508444213E6833410AB3146241087B98C104D0508142D061360EA845250460820AB442013E58823F42
1004275CE100C8C807074060861424200134D882EB1CA6905B6C0C35E110081B12D094DF0DC4162223482E3ED0807F2821007B38853F6A71097F84CE1F814802
22FFBC45286450201C2308843F5027097FE8100EFF380113E2F5837FB44200FF9085EF7C58110D20C102F038830054E08F23B40300D07945C37485905730C713
052902F6FC70038334D11FF3B00901EA203A526880116048C02B98B1257F744001210054171CF08F64584000A7F8070C024681454C2300F7F807B7FE3113277C
E10207B04600D8100516FA031CFF4043B2E21080674C615832A000265C01000310E10508418345CE500DB511EB1F9628840C6290872A1A641C14AB876BAA3027
74306D0CBDAA882606428D57D84166CF28881F2C12A3D491A45C14EBD24156F043D434401DDFE8845352E84D8810E00F3BF0872E12C2850EC8CC2985E8543B8F
331D001034E503DF4A8D174AB44F1A59A178FEA800410BCAD0863A546A0101003B}}
\par\par \b \uc2 Before the Move: Intercept rising ahead of April 7 \uc2 FDA\uc2  panel\b0\par\par\uc2 261 \uc2 words\par \uc2 1 April 2016\par \uc2 Theflyonthewall.com\par \uc2 FLYWAL\par \uc2 English\par \uc2 (c) 2016. Theflyonthewall.com.  All Rights Reserved.   \par \par \uc2 Intercept Pharmaceuticals\uc2  (ICPT), a clinical stage biopharmaceutical company focused on the development and commercialization of novel therapeutics to treat non-viral, progressive liver diseases, has a scheduled FDA Advisory Committee meeting on April 7 for its Primary Biliary Cholangitis, or PBC, program. The program also has a PDUFA date of May 29 with a planned U.S. \b \highlight22\uc2 launch\b0 \highlight\uc2  in June if the \b \highlight22\uc2 New Drug\b0 \highlight\uc2  Application, or NDA, is approved. ANALYST VIEW: On March 23, Leerink analyst Joseph Schwartz and team reiterated a Market Perform rating and $144 price target on Intercept, saying that while they believe the company is likely to get a positive panel vote on April 7 and secure approval of the revised May 29 PDUFA date, they believe "Street estimates ...\par \par \uc2  still look overly aggressive despite their ongoing decline." Schwartz noted that M&A is a wild card, but added that "suitors can wait for a slow PBC launch which should keep the stock otherwise range bound." On March 30, Goldman initiated Intercept with a Neutral and a $114 price target, saying "expectations for a positive outcome appear high" for Intercept's lead PBC drug obeticholic acid ahead of the \uc2 FDA\uc2  panel on April 7, and the firm expects an approval on May 29. However, Goldman said it saw a "dearth of catalysts" following April 7. PRICE ACTION: Over the last month, shares of Intercept are higher by just over 5%. The shares have seen some volatility due to renewed takeover rumors that resurfaced in mid-March.\par \par \uc2 Document FLYWAL0020160401ec410070t\par }\page {\par\fs20{\*\shppict{\pict\pngblip\picw174\pich40\picscaley100\picscalex100\picwgoal2610\pichgoal600
47
4946383961AE002800F7FF005451528A88888E8C8CA3A1A1868485CFCECEB1B0B0949293E1E0E06B6869656262ACABABB5B3B4C5C4C4B7B6B67F7D7E5B585957
5454BAB9B93531324643444C494A262223373334231F206E6B6CFCFCFC5653547270702B2728484546E9E8E84F4C4D5F5C5C8583844A4747343131A7A5A6FCFB
FCD7D7D7242021FDFDFDE8E7E7454142514E4EFBFBFBF5F4F5EFEFEF5D5A5BB2B1B1D2D1D2A19FA03632336D6B6B605D5ECBCACBF6F6F6474445EDEDEDF7F7F7
F1F1F17C797AE7E6E74642432C28296764654946468B898AE3E2E2F0F0F0999798DCDBDB3F3C3DC7C6C65A5758F8F8F8F9F9F9F3F3F35F5C5D9A989939353668
6566A8A6A7322E2FCECDCD2E2A2B393637757273423F3F2925264D4A4BCCCBCBF2F2F2FAFAFA2F2B2CBFBEBEC6C5C5D1D0D1A9A7A8EEEDEE2C292A7371717977
77413E3F716E6F333031C4C3C4D9D8D9C2C1C1E4E4E4EAEAEA4C4849DFDEDF504D4D3834353D393A3E3A3B332F30A5A4A4CAC9CACDCCCC9B999A444041888686
939192595657787677807E7E817F7FE3E3E32A2627A6A5A5E2E1E19896973B3838D6D6D6434040F4F4F4E5E5E5E6E6E65E5B5BDCDCDC898787A4A3A3D5D4D49E
9C9C7472724B4748EFEEEE929091DEDEDEC0BFBF969494979595312D2E848182D3D2D2CAC9C9C8C7C7B3B2B2BBBABA3A37386A6768BDBBBC272324777475B6B4
B5B8B7B7F6F5F52521226C6A6A615E5F696667AAA8A8B0AEAFB0AFAF524F505C595A2D2A2A828080918F8F7B7979636061787576535051D0CFCF918F90DBDADA
ABAAAABEBDBDEBEBEBAAA9A9C3C2C3ECECEC767374E0DFE0D0D0D0ADACAC9C9A9A6F6C6DA4A2A2625F60585556838181302C2D9D9B9B666464848283C3C2C28C
8A8B726F70524E4F4E4B4C7E7B7CDAD9D97D7A7B8D8B8C3F3B3CE9E9E99796969F9D9EDDDDDD9E9D9DD6D5D5AEACAD585555646162908E8E403D3E7A7878C9C8
C8B4B3B3BDBCBDB7B5B6D4D3D33C38397E7C7D706D6E282425656363D8D7D8A7A6A7A09E9F959393C1C0C0727071AFADAEB9B8B89D9B9CF5F5F5888687231F21
9C9A9B9E9C9D828081FFFFFF21FF0B584D502044617461584D503C3F787061636B657420626567696E3D22EFBBBF222069643D2257354D304D7043656869487A
7265537A4E54637A6B633964223F3E203C783A786D706D65746120786D6C6E733A783D2261646F62653A6E733A6D6574612F2220783A786D70746B3D2241646F
626520584D5020436F726520352E362D633131312037392E3135383332352C20323031352F30392F31302D30313A31303A32302020202020202020223E203C72
64663A52444620786D6C6E733A7264663D22687474703A2F2F7777772E77332E6F72672F313939392F30322F32322D7264662D73796E7461782D6E7323223E20
3C7264663A4465736372697074696F6E207264663A61626F75743D222220786D6C6E733A786D704D4D3D22687474703A2F2F6E732E61646F62652E636F6D2F78
61702F312E302F6D6D2F2220786D6C6E733A73745265663D22687474703A2F2F6E732E61646F62652E636F6D2F7861702F312E302F73547970652F5265736F75
726365526566232220786D6C6E733A786D703D22687474703A2F2F6E732E61646F62652E636F6D2F7861702F312E302F2220786D704D4D3A4F726967696E616C
446F63756D656E7449443D22786D702E6469643A46443746313137343037323036383131383038334435314630433333393636372220786D704D4D3A446F6375
6D656E7449443D22786D702E6469643A37314432413841433531453031314536383342314337334644453946314437322220786D704D4D3A496E7374616E6365
49443D22786D702E6969643A37314432413841423531453031314536383342314337334644453946314437322220786D703A43726561746F72546F6F6C3D2241
646F62652050686F746F73686F702043533620284D6163696E746F736829223E203C786D704D4D3A4465726976656446726F6D2073745265663A696E7374616E
636549443D22786D702E6969643A3936353832434644323145343131453642323641433635413536343534384435222073745265663A646F63756D656E744944
3D22786D702E6469643A3936353832434645323145343131453642323641433635413536343534384435222F3E203C2F7264663A4465736372697074696F6E3E
203C2F7264663A5244463E203C2F783A786D706D6574613E203C3F787061636B657420656E643D2272223F3E01FFFEFDFCFBFAF9F8F7F6F5F4F3F2F1F0EFEEED
ECEBEAE9E8E7E6E5E4E3E2E1E0DFDEDDDCDBDAD9D8D7D6D5D4D3D2D1D0CFCECDCCCBCAC9C8C7C6C5C4C3C2C1C0BFBEBDBCBBBAB9B8B7B6B5B4B3B2B1B0AFAEAD
ACABAAA9A8A7A6A5A4A3A2A1A09F9E9D9C9B9A999897969594939291908F8E8D8C8B8A898887868584838281807F7E7D7C7B7A797877767574737271706F6E6D
6C6B6A696867666564636261605F5E5D5C5B5A595857565554535251504F4E4D4C4B4A494847464544434241403F3E3D3C3B3A393837363534333231302F2E2D
2C2B2A292827262524232221201F1E1D1C1B1A191817161514131211100F0E0D0C0B0A090807060504030201000021F904010000FF002C00000000AE00280040
08FF004B641097230B86837414D00AF3AFA1C32D689C204A7510C304469BD838DCB85197212CEFB8701CF94F1590722453AA5CC9B2A5CB97305F92382882A492
83677034CC7090D1C836340E0E48C901038A130D9B55C4367204860D0E9D615821D2E1978A9C1AD2EAC95145150C003832093AEB9F0B2418426C2C70905FC35E
07A1E8E0D8074316221CCB60C0E55083070C1D3E38AC70B0C44657A61A3AB5C1B1C4411A456662A8E99267DA8D94E61C5CB14365D1A32A831CD454E769C36885
538AC020D861B983A7C661D0F8EFC6C14F833024E0D8A20547680727546D68E0E01F5E931BE2D06C8B88DDE10DFD026EFD0F44EA91510E424B192255CCEFE0C3
8BFF1F4FBEBCF9F3E8535AD305C809863C0EF96030B0110E063AFF7A1C44C3E39F2D0C6260E0CF4648C4E1180518F4E200063134D404089E3435C346EF48414C
580D2D538643D218F1CF2A9B6C44C086FFC0330E20216020C53F85ECD6101E2168F00F0CF3FC7309052948461947DB54B4DD3F96A935D23C15A943523D18D0C0
42459DA8E4145424B9A04267E99154840A4B545965111F30C19164B8B0B749250C1C9192652CFC4308160705E1D26748D527CB4114F4F7CF930D4D53D141A478
900101BF6C61898C0D11322729BB34F408068E207350030D2571D01A1BFDB1672C908E04C041E03434CC530B1C54E33F3C7881811D1B49179843D6616018471F
A4FFB1270664B070C5109FE4A2C23FA66250CA4BA21CD407496B58505112D81D84474BB96190A643479C31EB4135F836522307FD3012040725C6D10D5F6100C4
0AE1FA9152AB877034C4418090B483B459F8E0D01B42A9540033D362208096FCAAC4441BA8A4A4812F599AA042300E5112F03F452CD28543452C6C16C00D2542
C40B1C69E0432223A950C4483CB8E1901B1873F4822F232DD1864E26A3DCEFCB2BBD4203041BF420020DCB3AE48DB1186C024916933091892007ED9B000660FC
C34628074530CC3FB221F3CF820C566A850D14D86042439184E284165A20F0CF28C336E4C8AF0DDD329424C948120E2E73A8D1502B13C402400F0458A1CD2B68
38FF7443145BFF13C8A90D4D7110011BA91089AC1878916E43351CF4CE462E1403C54182E492925E150DC1D224184400F3E8A4B3A423493254C4C74E0709C9D1
55073539525118F8F08226073DDB94690EC191C341725851D1030E8D72D0148A8C3403069472740E6CFFA45017067184D041D10D8D112E3A231D828131238D51
DA350D2D810806825027C30A0731B3C2F5B735B405EE1864334145A34A1604279E401303204111176D583715233C81166610C241E2802CCF18254E0DB1C14150
203787E0E91FA8D103475CE083D56060040E89C041E4B111091EC4730E61070640101D05026825B2C180283662848AC0602331380821FAF2975535A455AFE288
68FF9CC0111D04223B18B8C5E92AC315455504552B8113492251913DFC833050D2931260628A8384851280F1D20F308084869CCF1B29B9C44D1EB3438720E07A
B210D9A69276858314E01FD7D04DC67A481D208E245618B0E24A96D892208D840015810F49A4A8124B488677FF7847B6BAB1113B1CC41523A14645FED0918A90
610C1B699633369208B4546024FA39480E36028C3D316024AAEAE3754642AFB4CCA5212910C0412254BA97EDA008D682190E8AF0B05E8207073C48813197C9CC
663AF399CDC842275220034DD0C7218EC0C0146A500572DCC00258F8871630308464606011755C83F730B00A58608019FFC8C34116F08F6554AD210520C320FE
01FF092098E11F8A2083005AE0066ADC300C1880800E5C604E1150930490D24B005EC005564C201F2C72C716FE410532702F40B518032A84A08A7FD422160E01
44D99E091E15648397FF2847591A923A10F826183C181C145200079D180303E050611260800186FCA3159309101B7251916BFEE30DF870C83736048300382405
7AE00431B4E09059947427F0E1C0161DA28409D101180EC9C00158E4A686788211325A02040C60833BB0F4AE784DC906D8511E13B4C00968E3D541DC410110B0
601D7B528225361239BBE4200E2CF801292A2204088E84151571914A5A900D67E5F5B3E0910CE238B20BF8E9CE328CE1081CC285A1D9CD8A172BB9206867DB12
42FF6EC41C15F110905A471250542469AE85C21A3670900BB42125B28D8E185880020C40210A03FC870EC2C089E38E840B78214937A880B07F9860064EC1401D
1200DC7F2C0112903842E038D2089671841054C8EE3F40618C4F100A979078822D2AE00146A001AD0E494426108481391C43060EB1AD4318D05402BA6E23FD38
08129AB0C807FEE31E15C9004964AB820B60E00DD66808288070107D346407C2C3003D394254DD6E44186474C13F1E7090574AF777F7BCC54148B4919F2A6024
BF38C846BDFB1741ECAA21E138082C7CA38163CCF31F9DA0C82AE4F58F5FF06C4592B12A47EA083D02CE70236AB81C391D089A86D0F8C91BB9E0160E620F541E
44FF90C438081016EB10C7D87123CFC300150447B4B13A040CADF05243F47090736CA41114C1001A1DD28439558287D361D5418A4192E2E8792444C5C00C1E39
AD1F6002941BB1CCB47A20329630B2212F1823FA12A518DE1115020528C1032220E68A70C021CD6AAD0A48918A9908C1212D10DEA31BF2848AD4A07923491D06
D240E57F88F07E1880A01F3090DAE8F051D2AE1A8909FE628630CC40182C30DC9E3291E59758A6AD27805F3B5A726AAB54441C0D011D94ACB302577C431B8256
89380EF28486A4E810BB3888969F71198E0003741581807C1B32808324A3213DB2A21C30008B865C0505A5B676A47F384B87F8A0344AF8C21182B1DE8D285825
86FF7488689415C57D947924043F8801220725A2D6A1642369C216D6CB03CD90A20518BE42433671906FBCE020C953C925C4FDCF8D480503A060020642B13509
1CA419FFA0838AF6B8F1EA74BC21DBC6800754E283309CFC4CBCDD88F10EA259D7BE7C245DC0F141A0649BA953C72197F82047EEB0990ED0804AFF589210E8B5
228704C2037A58F83F9441AB4560467872088A5D1B62A97564E7D65CF7A1D7B33D921C62201C2469B82A1837DA42A69D239B3AC8282AFC7692A8A12250026800
4901815248435A322409910E32F986ACA122EBDEC822A05D8DC049E2208507734586ED90BF60C010CACC980235DFAAE47F6BB2E25A85301230F13163A20766B8
C4FF4B4C510A3F509A24BDF04300A2708A917CE11998B8254B62508D5770C404BCB04128A67086639497247B0004AD3012AF00054150720E31064FA00CD7E305
09105D1C510C13602E1CD10D6F300259311229200973600B32D610B3800858400F2BC103DC100B72500739500B08465B2EF88230188332388334588336383AC8
30022B8008DB30128F703F53800D320004F88100E3840168B08118802C37807009705C95103A0DB10718F0086056012B70068EE01077000B3F80083DB0357810
0D33E001175013668005562035FFC007AD10091480044E00070EC10D3AF8039120623310097A600857A04C92D040FFA0021A76830D8109E9E010D5200C0E913A
42FFD0198740051F403D8BF07C9DD11F92640E29A239FFB03C8E1020187006FFB02E0DD210D4403E16776BC78079FF80037270048D60088ED786E10439586706
1AE41071E02143E02DFF8006D1104F86E01049302C44F00366F20FB8005B86F80F8350050950085480063B221FA5D810F621070D11035AF749751420CFB011E4
0002528001AE000342604FD7A40371D0821BF10656E81051C00DEAC055945788FF5003F0E104CB2022D2F00F76E00535F0049D200A99C022AC408C302023F130
09FFE00C3DD08CD285040ED010AF800185202218A00919E005391067D3700416810DE35400D3660D08850141C078F0546CA8E24EE6E810469006DAD010110001
FFA0A006A49033B7B00263B34A0D510B09D910ACD06FD9D429FFF00869D0041A400E89F80FC8611899B00A7FA60CC5440BA4F05512A92698D07EB511081CB104
C320125D300C8AA04C5D80002EE3068D40251A4004D4F1024740610065091FE81090C007BDC0113E6004F6D5105D4097AD78972E90254E6055BF300338F70F08
300FA0D01077B02B1C037693591B5840095B99992E5103FB421E8D30012020980101003B}}
\par\par \b \uc2 Medical Device Company CardiacAssist(R) Announces Rebranding As TandemLife(R) With  \highlight22\uc2 Launch \highlight\uc2  Of  \highlight22\uc2 New Product \highlight\uc2  Lines\b0\par\par\uc2 620 \uc2 words\par \uc2 31 March 2016\par 09:15\par \uc2 PR Newswire (U.S.)\par \uc2 PRN\par \uc2 English\par \uc2 Copyright \u169\'00\'A9  2016  PR Newswire Association LLC.  All Rights Reserved.   \par \par \uc2 \f2 \par Newly formed TandemLife will offer several innovative product lines to help medical professionals improve the quality of care for patients in need of advanced cardiac and respiratory support \par  \f28 \par \par \uc2 \f2 PITTSBURGH, March 31, 2016 /PRNewswire/ --\f28 \par \par \uc2 CardiacAssist, Inc\uc2 . today announced a rebranding of the privately-held company and will begin to do business as TandemLife as it rolls out several new product lines to hospitals worldwide. Following the \uc2 FDA\uc2  clearance of its TandemLung(R) oxygenator, the new TandemLife company is focused on making advanced cardiac and respiratory support technology available to more patients by providing medical devices that deliver on its mission of Life Support Simplified(TM).\par \par \uc2 "Twenty years ago, Cardiac Assist Technologies began the journey to create a circulatory support system unlike anything the world had seen before," said John Marous, President and CEO of TandemLife. "With the commercial launch of the TandemHeart(R) system in 2001, we delivered on our commitment and the result was a product that is still widely recognized as a robust, reliable treatment option for patients requiring cardiac support. While we're incredibly proud of what we created in the early years, it's now time to enter a new phase in our company's history where we have the ability to help more patients than ever before as TandemLife." In addition to its recently-announced TandemLung oxygenator, the company has developed and commercialized six new products since September 2013, including the ProtekSolo(TM) cannula line, the ProtekDuo(TM) veno-venous extracorporeal life support (ECLS) system, and the VoyagerVest(TM) mobility platform.\par \par \uc2 In North America, less than 2% of patients who experience a cardiac or respiratory emergency currently receive care with advanced cardiopulmonary support, in part because the complexity of such therapy has restricted its use to only the largest, most advanced hospitals. With TandemLife, hospitals can deploy a single pump and controller platform upon which all of the company's products operate, eliminating the need to train and certify hospital staff on multiple different systems. For cardiac support, a physician may choose the classic TandemHeart procedure, the ProtekDuo procedure available since late 2014, or the new TandemLife procedure, depending on each patient's individual needs. Likewise, for patients experiencing respiratory dysfunction, either the TandemLife or TandemLung procedures may be appropriate. By offering multiple circulatory support options on a single platform, hospitals can turn to TandemLife as a premier, single-source provider of a comprehensive system to control healthcare costs without sacrificing the quality of care.\par \par \uc2 "Our transition from CardiacAssist to TandemLife is the end result of years of collaboration between our employees and top tier physicians, patient caregivers and hospital administrators," said Mr. Marous. "We will remain focused on improving patient outcomes and reducing the cost of healthcare by continuing to develop simple, reliable life support solutions. We expect 2016 to be another banner year for our company with more exciting products still to come."\par \par \uc2 TandemLife products can be found in approximately 200 centers across North America. For more information about the company or its products, please visit our website at TandemLife.com.\par \par \uc2 About TandemLife\par \par \uc2 TandemLife is a growing, privately-held medical device company headquartered in Pittsburgh, Pennsylvania, that developed the world's first FDA-cleared and CE-marked short-term extracorporeal circulatory support platform. TandemLife products have provided critical cardiopulmonary support to thousands of patients in the top hospitals worldwide.\par \par \uc2 Logo - {\field{\*\fldinst{HYPERLINK "http://photos.prnewswire.com/prnh/20160330/349799LOGO"}}{\fldrslt{\cf2 \uc2 http://photos.prnewswire.com/prnh/20160330/349799LOGO}}}\par \par \uc2 To view the original version on PR Newswire, visit:{\field{\*\fldinst{HYPERLINK "http://www.prnewswire.com/news-releases/medical-device-company-cardiacassist-announces-rebranding-as-tandemlife-with-launch-of-new-product-lines-300243905.html"}}{\fldrslt{\cf2 \uc2 http://www.prnewswire.com/news-releases/medical-device-company-cardiacassist-announces-rebranding-as-tandemlife-with-launch-of-new-product-lines-300243905.html}}}\par \par \uc2 SOURCE TandemLife\par \par \uc2 /\par \par \uc2 Document PRN0000020160331ec3v000ap\par }\page {\par\fs20{\*\shppict{\pict\pngblip\picw205\pich40\picscaley100\picscalex100\picwgoal3075\pichgoal600
47
4946383961CD002800F7FF00C5E8F54AB8E09CD8EEF9FAFAF3FAFDFDFEFF81CEEAD8F0F8F5F6F664767A1CA7D96EC6E671C8E7E4F5FA8E9B9E2AACDB89D1EB4C
616652666B495E64C5CCCE76CAE8BAE4F3A9DDF09AA6A9B6E2F35EC0E43EB4DE203A41E9F6FB0E2A313C5359A4DCF07DCCE9E1E4E5ADDFF1F5FBFDB0E0F2EAED
EDC1C8CAC0E6F416A4D720A8D9AEE0F1CAEAF61B363CBDE5F45A6D7219A5D855696E7E8D906D7E829ED9EFAAB4B6364D53D6EFF8758589D4D9DBE3F4FAD4EEF8
2CADDBA0DAEF40565CB1BABC8CD2EC46B7E040B5DFEEF9FC92D4EC5BBFE3BEE6F459BEE3E1F3FA3DB3DEE5E8E97FCDE96BC5E68ED3ECA2DBEF82919479888C34
B0DD53BCE2D1EDF744B6DF60C1E4B6BFC11BA6D89DA8AB9AD8EE96D6ED98D7EE87D0EBB5E2F236B1DD2FAEDCCAD0D2FDFDFDECF8FC4F646923A9DA3AB2DED1D6
D789979A2E474D48B8E02A43496CC6E6465B604FBAE1697A7F324A5039505557BDE2153037122D3413A3D732AFDC51BBE290D4ECC7E9F524A9DADAF1F968C4E5
64C2E5F6FBFDF9FDFE8F9CA0C9EAF6D9DEDF1FA8D938B1DD27ABDAB3E1F274C9E77BCBE9F7FCFE607377D8DDDE43B6DFFAFDFE70C7E726ABDAF1FAFDD3EEF7AD
B6B914A3D7B9C1C333B0DC738387B2E1F228ABDBBBE5F4F9FCFE586B7057BEE3EDEFF0C2E7F595D6ED26AADADDE1E2DBF1F9C6E9F5FBFEFE87959855BDE225AA
DAF2F3F4F0F9FCA7DDF0BBC3C5274046AEB7BAABDEF1F8FCFEDADEDFC7E9F694D5EDC8EAF691D4EC7ACBE86F808466C3E5BFC6C8ECEEEF5F7276D2D7D8E7F6FB
31AFDC28414784CFEACCD2D3E0E3E45CC0E3CCEBF6DCF1F971828665C3E54BB9E14DBAE1F6F7F8DBDFE0EFF1F1DEF2F91D373EBDC5C696A2A531494FC4CBCCEB
F7FCE4E7E8A2ADB0E5F5FBECF7FC77CAE8384F5539B2DD8B989C19A6D8DCE0E1DEE2E3CEECF7EAF7FBD7DCDD5C6F74708185C8CFD0FBFCFCA6B0B3A0ABADE7EA
EBD2EDF7F1F2F3F3F4F498A4A78F9C9FC3E8F5D3D8D9D6DBDCDFF2FA183339E8EBEC7F8E92B7E3F3CFD4D667C4E5CDD3D4B3BCBE42B5DFE6E9EA2B444A334B51
DDF2F9ACB5B850BBE1FFFFFF21FF0B584D502044617461584D503C3F787061636B657420626567696E3D22EFBBBF222069643D2257354D304D7043656869487A
7265537A4E54637A6B633964223F3E203C783A786D706D65746120786D6C6E733A783D2261646F62653A6E733A6D6574612F2220783A786D70746B3D2241646F
626520584D5020436F726520352E362D633131312037392E3135383332352C20323031352F30392F31302D30313A31303A32302020202020202020223E203C72
64663A52444620786D6C6E733A7264663D22687474703A2F2F7777772E77332E6F72672F313939392F30322F32322D7264662D73796E7461782D6E7323223E20
3C7264663A4465736372697074696F6E207264663A61626F75743D222220786D6C6E733A786D703D22687474703A2F2F6E732E61646F62652E636F6D2F786170
2F312E302F2220786D6C6E733A786D704D4D3D22687474703A2F2F6E732E61646F62652E636F6D2F7861702F312E302F6D6D2F2220786D6C6E733A7374526566
3D22687474703A2F2F6E732E61646F62652E636F6D2F7861702F312E302F73547970652F5265736F75726365526566232220786D703A43726561746F72546F6F
6C3D2241646F62652050686F746F73686F70204343203230313520284D6163696E746F7368292220786D704D4D3A496E7374616E636549443D22786D702E6969
643A34434136463534303530463531314536393838464545313643313433353536382220786D704D4D3A446F63756D656E7449443D22786D702E6469643A3443
413646353431353046353131453639383846454531364331343335353638223E203C786D704D4D3A4465726976656446726F6D2073745265663A696E7374616E
636549443D22786D702E6969643A3443413646353345353046353131453639383846454531364331343335353638222073745265663A646F63756D656E744944
3D22786D702E6469643A3443413646353346353046353131453639383846454531364331343335353638222F3E203C2F7264663A4465736372697074696F6E3E
203C2F7264663A5244463E203C2F783A786D706D6574613E203C3F787061636B657420656E643D2272223F3E01FFFEFDFCFBFAF9F8F7F6F5F4F3F2F1F0EFEEED
ECEBEAE9E8E7E6E5E4E3E2E1E0DFDEDDDCDBDAD9D8D7D6D5D4D3D2D1D0CFCECDCCCBCAC9C8C7C6C5C4C3C2C1C0BFBEBDBCBBBAB9B8B7B6B5B4B3B2B1B0AFAEAD
ACABAAA9A8A7A6A5A4A3A2A1A09F9E9D9C9B9A999897969594939291908F8E8D8C8B8A898887868584838281807F7E7D7C7B7A797877767574737271706F6E6D
6C6B6A696867666564636261605F5E5D5C5B5A595857565554535251504F4E4D4C4B4A494847464544434241403F3E3D3C3B3A393837363534333231302F2E2D
2C2B2A292827262524232221201F1E1D1C1B1A191817161514131211100F0E0D0C0B0A090807060504030201000021F904010000FF002C00000000CD00280040
08FF008DD51948B0A0C1825EDA84B044E29FC38710234A7CB84EC2980913665889C84A020735E1B63954142197C3011258399C14E1CFC4873F226079F86D462F
0E9AEE3D843626D1C37663C239FC21414284081322E072682F018755C4A4BD9C4AB5AAD5AB2FEBD0D9BA550A56872402701DDBE1EBBF171E564D60E3C183BE01
0E7DB44D10A3EDB48738DA3EF987A0AD074E13E5CA49D476E63F0C6D3511F630C1610D0F361C366BFBCCE1190F1CD6B299B0545DDB310998794860B6B4E9D35A
C7DA39CDBAB5EBD7B063CB369D9AEB6AD386C6D221E4E7EB9EB10F221EDA2A00229EAD41AE36DABAE26116AE981E1AD80AE421091874522C8BE86B6BF0871AB6
76FF92CE15D2C3055B5341BCB31502C43E79E8A898C8646B318800B61EB16A64EB17898B6CB5406D5BB5E1C7810766520044A3B8D2411755E8C61508A5FD4607
850E51B11526251067DC566960758080DDA540C03F805027051D8E607543105B09D2DB43A26C158235747CB2607F74CCB2011D3C48C41E1DEE3D049F7C0FE527
DF10132959446B2E38A21F8112566925570C9C4698030F55E2C119FF9CE0C1070FFDE2811A0EB1E2810CC8F8254F5F6854F587079538C48107AF3C64830760FC
138907177940419B91FD33273336D8B00F98FFA8E2970FD99C32DBA46651795B697648380AA59C76EAE9A795EA76A959B98DC5DB57060C32882F1335A1EA0810
75FF739041253C6481AA4556C5C42051980751274528C0551D1030129113AA3A7195068350A2C343C80E52DC43880861102F946C60CB051309336B4116480402
15926C25C92218FE63E9692AE8B68159168E97C256C338341C1DD33A741C1D64F0E1EFBFFE0210112574C080CA3F5CD0F14513E9FD03CB561A4484097055DCC1
C24B8808AB4D43CB09B1C55646FCD3211D4C443464AEFF1C09030315B45C011F577085047E5B5D0230C0173F04C158D830D1C30D10515965B80F2561A50AE39D
6661BA0ED13056BEFFECEB052054570D082CD148F4F156642CE8500763250D517D3686E20722806848878C112DC1D52010ED30D60E42B6F75E7C829CF8500182
6CFFE549444A2EC282D554CB2206445F6C95020DD4303244219F4C79E5E4122AD0436B84E160063D737A60C63FF1B4F5473EAF44E081260E5DE3C10FFF10D356
3AFFEC23285573D6F98FE91280A2C4136D01F6675B8A340A99437326A0882281E40097261ED4328E34A64301EAF4EAEA96871DD867AF7DF641907125936611E6
9243B57840CA3FB77800C7438A78D0CB4972B4D08B0703942FFBF85321468C43A229F1D033B3FB1399E4E101D1ACCF50A301850201F30F49FD831BE4988007D8
403D50ADAB34F3905030CCA284407830100E8C483226710B7444240C81C893431010081350E5179370874494D18C49000322A70884082012881BFE83131FFCE0
38FF1E8280134C428515FCD40593C8C4263A31894B348B2702608C2A1AA308C67AA216B7E8C4287EA5545C3915562C44076348E45E50DBD79594E5908CE52822
1DD0C1232032223A0801221918CB2084D0AEAD440122D4D88A1722420D1DE8CD210FA3C37E1E72B2BB510E6E349B1CACC8A3B80D6C605E5B6944F554739A0AE8
E61333BACA6F52D088BEC100110F41E387EC78951AD12162FF28401FE990848778612B3373882B844507595C65045B598343C480493A94A28DC282C121FFD148
23E1AD2111B9C0569E94A4AE58851D5B310555BC681561542903F0DA0A1BA5448742FC0347F85AE595B61091E9D0611EFF98D721FE2196E0848039132981318A
C9FF156A42043D7410C63FB6128B7FFC6811FFB0C556506032BB39F36865688544947425A639E40E65A85213363939733EE40194A38669960691E53C6D9577C4
CA31C6521D87AC612CD688482BB8321118D14114031B4BBA4A319610D48D488ECCDB43C0B615174C742BA37A8985421491026493725B99A44362C61515144360
AEC9141DB4201135B6D4213CBA524123120DAED02022B4E0DA4B1AF0A32AF9542275A403D11E12213AFC51226EA34305204202AECC3122C6D8CA0636E590894D
EE7210B1C02CC72209895215AA5772440876E11AB6F8A52DD27388032EEB81397CE31FB8680B378457287078000754918107C0E1105D70D603CE70483930EB10
2BFF78400E0E512D676F4881D78A848BB0111A64AD6408D610C63067F10097C414A7D69EC92133F00006FEA186B66CA477B4A3939D3C008A87ACC203E2F0935F
2263A642CDE97C11A98B1B20E242E0BE46B8C3B512B74AB3A58744371BFF808607AEF1107178A0B9EDD3046270B00A1B4C633472D2EE3FEE948387BCC103BF10
AF1BCC91967B0C0F81977DC143542197B6C8A1C1EE750D953681150280800755D264F83C60182554572539F0003CA4F28FCD1EF01F6368CB3EFED10FBF406322
3878417849E181F5FE030DB01D891C3C900CF19269C16D79F29CF01B9108C0632FE8C34C88452C2AD3104242ECFC0A5A321C8F872843027E81077A1DD2630FE8
C2FF21CCBB714494D0610F98E421F258726210E018F53D241717DE2C67776828D1B42506C8D8726BB87915148F85128A8EB4A451D365D31CC00298C6B411BC36
E94E7B7A228CFEB4A847CD9A5093FAD4A8DE66A54B53D7B16442D1842D0DA72122861D4C811F2F99F557740DDC064C610ACF0ADAAA49A51B315E250E5C798744
C8360B88A080725C75488AE85006AB20822B657908C3AA14856C3BA410D6ACCAB5B7E28A8774870EF3B40EE5F0518D8884D54A6C048F9536C851A49E068C5B31
B655C84807A34244950FD91736F440F082EBE1007F754860E970808784020692B844B91D32B23D40A4AD49F0152AB6468778FF8317053B241E522089BB3A2416
5BFFA1C57A1CEA902329600A06970518A5FA0F25A521140627F8010E590DAED4A3010ED18149E9A0075353059D610CE5BEB3C3952CFCDB4301DF4A4AABE289AD
6CD421C1E0CA12E85AD4A16EE50A1261440F68305F87DC930E77784880FCF690859F63E5407DA85023F26C3A90B89A7448EA442CB195BB43040934A0810B8C3E
954DE8E63B63DCCA0D9C460715FF03E0FA42CE55883AC8A8D14112BCA4AC37F23D6BB53D0013599CCA0D24FF8F1564073B0AE84D1D110A77941D693E848CC256
0C10C9455205155C3986AF2442F889E4752C8E17E5562E87723ABCEB1F694D67D4273756AED30116FFD0901418D1375BFCE33974B83A447626A13A1061220BDF
0EFF8A1730503A6C3DAFCD6EBD2327E7F4485E09B10F31BC848260098750290E6699073FB7E2085E5385A4FF9041BBF10FDB96465B51078590800A680925904B
0F3132A9A0035BD105FFC07D43C0005BD1706B950121B07004151155470723C0025BD10DFF704F57F0085A156C8CC47229131F57D00A5D60098E167C9194045D
A08009C8802235117A900A0C60345CE12DBA01039740084848088EC0500FD1069F801D56524B15B215E9120AFE111ECA1779AC741599D03782D037C7F0102896
07ED120011110A1770015805118CE03D7400345EC722DE731FFF8008DA40070FD02EFED48271D7727873483C55464D626F55210A69582F74B7153C005F633157
FFFF208456C28453782110E1075008755A981C58317401F510D2C415F0E710B8B7155C1011A3101F74B07B0ED16A74C082B3301665C787AEF787107176410238
FA61152EC01538F52B35C3885CE188903816554059AC018010017298687993735611210B5C510511D1563090700F410097602AA630161E47715C115310015205
034DEA2777CBF40F7CB715D64851F2051190301629F0007DC31537C0050C6008F8988FFAC80070E81040D00887100BF3003EAF7107D8E36F111102D8034E0F71
03DBF390083936D8E36D0E3105D88332124103FEC00382A00251500C62131199700476500AE40856D8E38C113102D8138B99A0017650047D20113A2005764005
0E17B8030FB93D6BF810DE00018B400882600A49400B881810003B}}
\par\par \b \uc2 Anacor Pharmaceuticals Files 8K - Other Events >ANAC\b0\par\par\uc2 249 \uc2 words\par \uc2 30 March 2016\par 16:40\par \uc2 Dow Jones Institutional News\par \uc2 DJDN\par \uc2 English\par \uc2 Copyright \u169\'00\'A9 2016, Dow Jones & Company, Inc.   \par \par \uc2 Anacor Pharmaceuticals Inc\uc2 . (ANAC) filed a Form 8K - Other Events - with the \uc2 U.S Securities and Exchange Commission\uc2  on March 30, 2016.\par \par \uc2 On March 30, 2016, \uc2 Anacor Pharmaceuticals, Inc\uc2 . (the "Company") announced a proposed offering of $250 million aggregate principal amount of Convertible Senior Notes due 2023 (the "Convertible Notes") in a private offering to qualified institutional buyers that is exempt from registration under the Securities Act of 1933, as amended (the "Securities Act"), in reliance upon Rule 144A under the Securities Act. In connection with the pricing of the Convertible Notes, the Company expects to enter into capped call transactions with one or more financial institutions. The Company's press release announcing the launch of the offering of the Convertible Notes is filed as Exhibit 99.1 to this Current Report on Form 8-K and is incorporated by reference herein.\par \par \uc2 The full text of this \uc2 SEC\uc2  filing can be retrieved at: {\field{\*\fldinst{HYPERLINK "http://www.sec.gov/Archives/edgar/data/1411158/000110465916108714/a16-7555_28k.htm"}}{\fldrslt{\cf2 \uc2 http://www.sec.gov/Archives/edgar/data/1411158/000110465916108714/a16-7555_28k.htm}}}\par \par \uc2 Any exhibits and associated documents for this \uc2 SEC\uc2  filing can be retrieved at: {\field{\*\fldinst{HYPERLINK "http://www.sec.gov/Archives/edgar/data/1411158/000110465916108714/0001104659-16-108714-index.htm"}}{\fldrslt{\cf2 \uc2 http://www.sec.gov/Archives/edgar/data/1411158/000110465916108714/0001104659-16-108714-index.htm}}}\par \par \uc2 Public companies must file a Form 8-K, or current report, with the \uc2 SEC\uc2  generally within four days of any event that could materially affect a company's financial position or the value of its shares.\par \par \uc2 (END) Dow Jones Newswires\par \par \uc2 March 30, 2016 16:40 ET (20:40 GMT)\par \par \uc2 Document DJDN000020160330ec3u003wt\par }\page {\par\fs20{\*\shppict{\pict\pngblip\picw120\pich37\picscaley100\picscalex100\picwgoal1800\pichgoal555
47
494638396178002500E60000CA4A54F9ECEBE0969BF4DADBBA1121AC0000F2D3D4CC515AEDC2C5BE212DB3000BB60518C22D39CE5961D67379F6E2E3B80D1ED4
6C73CA494DD1626CFDF9F8BB1424C8454AB10004BC1B24B7071ADB858BBE1E2CBF2431C12935EAB9BBE8B1B4C63D44E7AEB1BE2230D87B81FCF5F6B9131CDF92
96C53941E6A9ADFFFDFDDC8A8EC3313AB60417D05D66B80A1CF8E5E6BC1928E3A1A4C4353EBD1C2AFBF1F1C02633C43541F0CBCDD2676DA50000B50215BA1420
C9464CC3303DE4A4A9C12C36E29B9FB60914FEFDFBC73F46DE8D93F1CFD1ECBDC0DA8085C53946C84248C02832FDF8F6B40010E9B5B8C63C43C63D49B7091BEF
C8C9B90F1FC73F4BF3D6D7C8414DC4383FCD6162B80E1ABC1629EEC5C7B50510BF262EFCF5F2FCF3F2F6E0DFFAF0EEC23439F5DDDFB70D16C4343CF3D8D7D060
64BF2533BD1A2BC23037C73D47BB1224FAEEEFC3333CC74147F8E9E8C4353BBB1626C12C329C0000FCF3F4DE908FECC1C0B8061BBA1720C12838B4090FBE1F2F
FEFBFBBA1423BA1323FFFFFF21FF0B584D502044617461584D503C3F787061636B657420626567696E3D22EFBBBF222069643D2257354D304D7043656869487A
7265537A4E54637A6B633964223F3E203C783A786D706D65746120786D6C6E733A783D2261646F62653A6E733A6D6574612F2220783A786D70746B3D2241646F
626520584D5020436F726520352E362D633133382037392E3135393832342C20323031362F30392F31342D30313A30393A30312020202020202020223E203C72
64663A52444620786D6C6E733A7264663D22687474703A2F2F7777772E77332E6F72672F313939392F30322F32322D7264662D73796E7461782D6E7323223E20
3C7264663A4465736372697074696F6E207264663A61626F75743D222220786D6C6E733A786D704D4D3D22687474703A2F2F6E732E61646F62652E636F6D2F78
61702F312E302F6D6D2F2220786D6C6E733A73745265663D22687474703A2F2F6E732E61646F62652E636F6D2F7861702F312E302F73547970652F5265736F75
726365526566232220786D6C6E733A786D703D22687474703A2F2F6E732E61646F62652E636F6D2F7861702F312E302F2220786D704D4D3A4F726967696E616C
446F63756D656E7449443D22786D702E6469643A38626361373663392D363138342D343661342D396436382D3831633536376638656232332220786D704D4D3A
446F63756D656E7449443D22786D702E6469643A38363837393630353343433231314538424441434143323846354633383935442220786D704D4D3A496E7374
616E636549443D22786D702E6969643A38363837393630343343433231314538424441434143323846354633383935442220786D703A43726561746F72546F6F
6C3D2241646F62652050686F746F73686F70204343203230313720284D6163696E746F736829223E203C786D704D4D3A4465726976656446726F6D2073745265
663A696E7374616E636549443D22786D702E6969643A38626361373663392D363138342D343661342D396436382D383163353637663865623233222073745265
663A646F63756D656E7449443D22786D702E6469643A38626361373663392D363138342D343661342D396436382D383163353637663865623233222F3E203C2F
7264663A4465736372697074696F6E3E203C2F7264663A5244463E203C2F783A786D706D6574613E203C3F787061636B657420656E643D2272223F3E01FFFEFD
FCFBFAF9F8F7F6F5F4F3F2F1F0EFEEEDECEBEAE9E8E7E6E5E4E3E2E1E0DFDEDDDCDBDAD9D8D7D6D5D4D3D2D1D0CFCECDCCCBCAC9C8C7C6C5C4C3C2C1C0BFBEBD
BCBBBAB9B8B7B6B5B4B3B2B1B0AFAEADACABAAA9A8A7A6A5A4A3A2A1A09F9E9D9C9B9A999897969594939291908F8E8D8C8B8A898887868584838281807F7E7D
7C7B7A797877767574737271706F6E6D6C6B6A696867666564636261605F5E5D5C5B5A595857565554535251504F4E4D4C4B4A494847464544434241403F3E3D
3C3B3A393837363534333231302F2E2D2C2B2A292827262524232221201F1E1D1C1B1A191817161514131211100F0E0D0C0B0A090807060504030201000021F9
0400000000002C00000000780025000007FF8079301D331B1B0971221D6886883535851B7B71351C8686591D099733681D977B683384867B301B8B8D89A98771
1CAC938F917B5995971B999B869D9FA5A2A492A7AC095909C3597E361C4E1B1004150B33163052047D2C1C1615D5042C3F20DCDD324ECE7E5219562B2E047E10
50203FEB7E2E10431CEB7D190416CDCF193049A8595B90608839762C948023C090C50A10CE089C4B27CF9D9B3450D8D173A3045F460B09D655F8E7A643071810
FC409B210106143FD73848A8E0C28F9F053F9210484960818C2110A498CB704246451743306A9462A1C3CB7C152488C8A072010C09339EB248C083A6CD843A79
3A7413D40F810C328CB23B37A44DC67610FF4A52F5F3924702AAD0AE1A122174A5843819FA5C1321E16C053F2C3A2481E0A24F3732493240E8236581152B0BAC
314E92868535175278286101334305000958F419C912C682C30425F481D207B1121E521A775B61811E65CB273248E903214312199EFBD06B4A7A2401BBAA47C6
C1BAA0D233161B5A9A8E29C18FE96E3FC8F2F40942F8502B6DF4B573C15181F075166AB058C044C7F4D419EA6FC0CDC405142622F04080029E2DD0811B0B7CC7
C40A49D0630E14974121140471A5F799144974B0406915D8B5C06A565157C1191C5480DD5FA62156436181F5C4C06293F564851BC25196811332E8A39C0B49AC
C0041468287081053F3051C0060C289086FF7C1760908702706CB0CE022E70C0831E05307046015CF0E082024154A04341504C56D9650B0C575C126D24079A05
A3A9149804A98178956B151070C619D1A0580177044091274E408D27437942E5768285F360F8430123D071C3004760C1840226D0F0C6124E14A040046C905006
80625051C40B5A6CC144145EB01182120520F1C704059C40850D4C9C97233B9BADE02686F271C8C3062C5430D29DAFB523021A8441E5870E4A482085A0DDA4E1
866F52B070020869DAE8C40A99ED98C40F2C1410C20330A0F0471B398CF047034E88F1400135FC7184137F0870410F1AFCE10003052040821407FC61420E00FC
11C216073C508502D3E2A8A30B2EF0E0ABFF35128AD69C6912106B6C8878E63383964EC090E202B705EA58060C147A1E0812AEF76DB8A065485A014D0CA0C018
603890C300761819C61F222041811C39D4F1C1053998F1C71647BE5BC005265050000F7F74B102145F3C8C0E19EA2DD719C6FB049BCF741EB3D6D26B31C55743
6E87E9D081048CE5E9D010657AEB44B78C0D01EE853C74409A1FE6BE50400114449083185A5C70C10A7FD810C71F57E4A003141904518717155CF083BF09402A
